{
  "_format": "hh-sol-artifact-1",
  "contractName": "EarnBase",
  "sourceName": "contracts/EarnBase.sol",
  "abi": [
    {
      "inputs": [],
      "stateMutability": "nonpayable",
      "type": "constructor"
    },
    {
      "inputs": [],
      "name": "EnforcedPause",
      "type": "error"
    },
    {
      "inputs": [],
      "name": "ExpectedPause",
      "type": "error"
    },
    {
      "inputs": [
        {
          "internalType": "address",
          "name": "owner",
          "type": "address"
        }
      ],
      "name": "OwnableInvalidOwner",
      "type": "error"
    },
    {
      "inputs": [
        {
          "internalType": "address",
          "name": "account",
          "type": "address"
        }
      ],
      "name": "OwnableUnauthorizedAccount",
      "type": "error"
    },
    {
      "inputs": [],
      "name": "ReentrancyGuardReentrantCall",
      "type": "error"
    },
    {
      "anonymous": false,
      "inputs": [
        {
          "indexed": true,
          "internalType": "address",
          "name": "agent",
          "type": "address"
        }
      ],
      "name": "AgentSet",
      "type": "event"
    },
    {
      "anonymous": false,
      "inputs": [
        {
          "indexed": true,
          "internalType": "address",
          "name": "to",
          "type": "address"
        },
        {
          "indexed": false,
          "internalType": "uint256",
          "name": "amount",
          "type": "uint256"
        },
        {
          "indexed": false,
          "internalType": "uint256",
          "name": "timestamp",
          "type": "uint256"
        }
      ],
      "name": "AmountSent",
      "type": "event"
    },
    {
      "anonymous": false,
      "inputs": [
        {
          "indexed": true,
          "internalType": "address",
          "name": "to",
          "type": "address"
        },
        {
          "indexed": false,
          "internalType": "uint256",
          "name": "amount",
          "type": "uint256"
        }
      ],
      "name": "AmountWithdrawn",
      "type": "event"
    },
    {
      "anonymous": false,
      "inputs": [
        {
          "indexed": true,
          "internalType": "address",
          "name": "depositor",
          "type": "address"
        },
        {
          "indexed": false,
          "internalType": "uint256",
          "name": "amount",
          "type": "uint256"
        }
      ],
      "name": "Deposited",
      "type": "event"
    },
    {
      "anonymous": false,
      "inputs": [
        {
          "indexed": true,
          "internalType": "address",
          "name": "previousOwner",
          "type": "address"
        },
        {
          "indexed": true,
          "internalType": "address",
          "name": "newOwner",
          "type": "address"
        }
      ],
      "name": "OwnershipTransferred",
      "type": "event"
    },
    {
      "anonymous": false,
      "inputs": [
        {
          "indexed": false,
          "internalType": "address",
          "name": "account",
          "type": "address"
        }
      ],
      "name": "Paused",
      "type": "event"
    },
    {
      "anonymous": false,
      "inputs": [
        {
          "indexed": true,
          "internalType": "address",
          "name": "tester",
          "type": "address"
        },
        {
          "indexed": false,
          "internalType": "uint256",
          "name": "amount",
          "type": "uint256"
        },
        {
          "indexed": false,
          "internalType": "uint256",
          "name": "totalClaimed",
          "type": "uint256"
        },
        {
          "indexed": false,
          "internalType": "uint256",
          "name": "totalUnclaimed",
          "type": "uint256"
        }
      ],
      "name": "RewardClaimed",
      "type": "event"
    },
    {
      "anonymous": false,
      "inputs": [
        {
          "indexed": true,
          "internalType": "address",
          "name": "tester",
          "type": "address"
        },
        {
          "indexed": true,
          "internalType": "address",
          "name": "newSmartWallet",
          "type": "address"
        }
      ],
      "name": "SmartWalletUpdated",
      "type": "event"
    },
    {
      "anonymous": false,
      "inputs": [
        {
          "indexed": true,
          "internalType": "address",
          "name": "tester",
          "type": "address"
        },
        {
          "indexed": true,
          "internalType": "uint256",
          "name": "testerId",
          "type": "uint256"
        }
      ],
      "name": "TesterAdded",
      "type": "event"
    },
    {
      "anonymous": false,
      "inputs": [
        {
          "indexed": false,
          "internalType": "address",
          "name": "account",
          "type": "address"
        }
      ],
      "name": "Unpaused",
      "type": "event"
    },
    {
      "inputs": [
        {
          "internalType": "address",
          "name": "tester",
          "type": "address"
        },
        {
          "internalType": "uint256",
          "name": "amount",
          "type": "uint256"
        }
      ],
      "name": "addRewards",
      "outputs": [],
      "stateMutability": "nonpayable",
      "type": "function"
    },
    {
      "inputs": [
        {
          "internalType": "address",
          "name": "tester",
          "type": "address"
        }
      ],
      "name": "addTester",
      "outputs": [],
      "stateMutability": "nonpayable",
      "type": "function"
    },
    {
      "inputs": [
        {
          "internalType": "address[]",
          "name": "newTesters",
          "type": "address[]"
        }
      ],
      "name": "addTesters",
      "outputs": [],
      "stateMutability": "nonpayable",
      "type": "function"
    },
    {
      "inputs": [],
      "name": "agent",
      "outputs": [
        {
          "internalType": "address",
          "name": "",
          "type": "address"
        }
      ],
      "stateMutability": "view",
      "type": "function"
    },
    {
      "inputs": [],
      "name": "cUSDToken",
      "outputs": [
        {
          "internalType": "contract IERC20",
          "name": "",
          "type": "address"
        }
      ],
      "stateMutability": "view",
      "type": "function"
    },
    {
      "inputs": [
        {
          "internalType": "uint256",
          "name": "amount",
          "type": "uint256"
        },
        {
          "internalType": "address",
          "name": "_userNormalAddresss",
          "type": "address"
        }
      ],
      "name": "claimRewards",
      "outputs": [],
      "stateMutability": "nonpayable",
      "type": "function"
    },
    {
      "inputs": [
        {
          "internalType": "uint256",
          "name": "amount",
          "type": "uint256"
        }
      ],
      "name": "depositCUSD",
      "outputs": [],
      "stateMutability": "nonpayable",
      "type": "function"
    },
    {
      "inputs": [
        {
          "internalType": "address",
          "name": "to",
          "type": "address"
        },
        {
          "internalType": "uint256",
          "name": "amount",
          "type": "uint256"
        }
      ],
      "name": "emergencyWithdraw",
      "outputs": [],
      "stateMutability": "nonpayable",
      "type": "function"
    },
    {
      "inputs": [],
      "name": "getAllTesterDetails",
      "outputs": [
        {
          "components": [
            {
              "internalType": "uint256",
              "name": "id",
              "type": "uint256"
            },
            {
              "internalType": "uint256",
              "name": "unclaimedAmount",
              "type": "uint256"
            },
            {
              "internalType": "uint256",
              "name": "claimedAmount",
              "type": "uint256"
            },
            {
              "internalType": "address",
              "name": "smartWallet",
              "type": "address"
            }
          ],
          "internalType": "struct EarnBase.Tester[]",
          "name": "",
          "type": "tuple[]"
        }
      ],
      "stateMutability": "view",
      "type": "function"
    },
    {
      "inputs": [
        {
          "internalType": "address",
          "name": "_tester",
          "type": "address"
        }
      ],
      "name": "getTestersRewards",
      "outputs": [
        {
          "internalType": "uint256",
          "name": "claimed",
          "type": "uint256"
        },
        {
          "internalType": "uint256",
          "name": "unclaimed",
          "type": "uint256"
        }
      ],
      "stateMutability": "view",
      "type": "function"
    },
    {
      "inputs": [
        {
          "internalType": "address",
          "name": "_tester",
          "type": "address"
        }
      ],
      "name": "isATester",
      "outputs": [
        {
          "internalType": "bool",
          "name": "",
          "type": "bool"
        }
      ],
      "stateMutability": "view",
      "type": "function"
    },
    {
      "inputs": [
        {
          "internalType": "address",
          "name": "",
          "type": "address"
        }
      ],
      "name": "isTester",
      "outputs": [
        {
          "internalType": "bool",
          "name": "",
          "type": "bool"
        }
      ],
      "stateMutability": "view",
      "type": "function"
    },
    {
      "inputs": [],
      "name": "owner",
      "outputs": [
        {
          "internalType": "address",
          "name": "",
          "type": "address"
        }
      ],
      "stateMutability": "view",
      "type": "function"
    },
    {
      "inputs": [],
      "name": "pauseContract",
      "outputs": [],
      "stateMutability": "nonpayable",
      "type": "function"
    },
    {
      "inputs": [],
      "name": "paused",
      "outputs": [
        {
          "internalType": "bool",
          "name": "",
          "type": "bool"
        }
      ],
      "stateMutability": "view",
      "type": "function"
    },
    {
      "inputs": [
        {
          "internalType": "uint256",
          "name": "",
          "type": "uint256"
        }
      ],
      "name": "payments",
      "outputs": [
        {
          "internalType": "uint256",
          "name": "id",
          "type": "uint256"
        },
        {
          "internalType": "address",
          "name": "receiver",
          "type": "address"
        },
        {
          "internalType": "uint256",
          "name": "amount",
          "type": "uint256"
        },
        {
          "internalType": "uint256",
          "name": "timestamp",
          "type": "uint256"
        }
      ],
      "stateMutability": "view",
      "type": "function"
    },
    {
      "inputs": [
        {
          "internalType": "address",
          "name": "tester",
          "type": "address"
        }
      ],
      "name": "removeTester",
      "outputs": [],
      "stateMutability": "nonpayable",
      "type": "function"
    },
    {
      "inputs": [],
      "name": "renounceOwnership",
      "outputs": [],
      "stateMutability": "nonpayable",
      "type": "function"
    },
    {
      "inputs": [
        {
          "internalType": "uint256",
          "name": "_amount",
          "type": "uint256"
        }
      ],
      "name": "sendAmount",
      "outputs": [],
      "stateMutability": "nonpayable",
      "type": "function"
    },
    {
      "inputs": [
        {
          "internalType": "address",
          "name": "_agent",
          "type": "address"
        }
      ],
      "name": "setAgent",
      "outputs": [],
      "stateMutability": "nonpayable",
      "type": "function"
    },
    {
      "inputs": [
        {
          "internalType": "uint256",
          "name": "",
          "type": "uint256"
        }
      ],
      "name": "testerAddresses",
      "outputs": [
        {
          "internalType": "address",
          "name": "",
          "type": "address"
        }
      ],
      "stateMutability": "view",
      "type": "function"
    },
    {
      "inputs": [
        {
          "internalType": "address",
          "name": "",
          "type": "address"
        }
      ],
      "name": "testers",
      "outputs": [
        {
          "internalType": "uint256",
          "name": "id",
          "type": "uint256"
        },
        {
          "internalType": "uint256",
          "name": "unclaimedAmount",
          "type": "uint256"
        },
        {
          "internalType": "uint256",
          "name": "claimedAmount",
          "type": "uint256"
        },
        {
          "internalType": "address",
          "name": "smartWallet",
          "type": "address"
        }
      ],
      "stateMutability": "view",
      "type": "function"
    },
    {
      "inputs": [],
      "name": "totalTesters",
      "outputs": [
        {
          "internalType": "uint256",
          "name": "",
          "type": "uint256"
        }
      ],
      "stateMutability": "view",
      "type": "function"
    },
    {
      "inputs": [
        {
          "internalType": "address",
          "name": "newOwner",
          "type": "address"
        }
      ],
      "name": "transferOwnership",
      "outputs": [],
      "stateMutability": "nonpayable",
      "type": "function"
    },
    {
      "inputs": [],
      "name": "unpauseContract",
      "outputs": [],
      "stateMutability": "nonpayable",
      "type": "function"
    },
    {
      "inputs": [
        {
          "internalType": "address",
          "name": "_smartWallet",
          "type": "address"
        },
        {
          "internalType": "address",
          "name": "_normalAddress",
          "type": "address"
        }
      ],
      "name": "updateSmartWallet",
      "outputs": [],
      "stateMutability": "nonpayable",
      "type": "function"
    }
  ],
  "bytecode": "0x60806040523480156200001157600080fd5b5033600073ffffffffffffffffffffffffffffffffffffffff168173ffffffffffffffffffffffffffffffffffffffff1603620000885760006040517f1e4fbdf70000000000000000000000000000000000000000000000000000000081526004016200007f91906200025a565b60405180910390fd5b62000099816200015160201b60201c565b506001808190555073765de816845861e75a25fca122bb6898b8b1282a600260016101000a81548173ffffffffffffffffffffffffffffffffffffffff021916908373ffffffffffffffffffffffffffffffffffffffff160217905550731c059486b99d6a2d9372827b70084fbfd014e978600360006101000a81548173ffffffffffffffffffffffffffffffffffffffff021916908373ffffffffffffffffffffffffffffffffffffffff16021790555062000277565b60008060009054906101000a900473ffffffffffffffffffffffffffffffffffffffff169050816000806101000a81548173ffffffffffffffffffffffffffffffffffffffff021916908373ffffffffffffffffffffffffffffffffffffffff1602179055508173ffffffffffffffffffffffffffffffffffffffff168173ffffffffffffffffffffffffffffffffffffffff167f8be0079c531659141344cd1fd0a4f28419497f9722a3daafe3b4186f6b6457e060405160405180910390a35050565b600073ffffffffffffffffffffffffffffffffffffffff82169050919050565b6000620002428262000215565b9050919050565b620002548162000235565b82525050565b600060208201905062000271600083018462000249565b92915050565b613cca80620002876000396000f3fe608060405234801561001057600080fd5b506004361061018e5760003560e01c8063a5c57752116100de578063bcf685ed11610097578063f2fde38b11610071578063f2fde38b1461044e578063f5ff5c761461046a578063f6375dfd14610488578063fd72b6e9146104a45761018e565b8063bcf685ed146103e6578063bd630dc714610402578063cfbfeeb8146104325761018e565b8063a5c5775214610323578063a9fc507b14610341578063adbd886d1461035d578063b33712c51461038d578063bb2a96ff14610397578063bcb2fb2d146103b35761018e565b80636c7b69cb1161014b57806387d817891161012557806387d817891461029a5780638da5cb5b146102cd57806392b30058146102eb57806395ccea67146103075761018e565b80636c7b69cb14610243578063715018a61461025f5780637d5c4d61146102695761018e565b80630ea86ad8146101935780633a1eb86b146101b1578063439766ce146101e157806347810fe3146101eb5780634c6705e8146102075780635c975abb14610225575b600080fd5b61019b6104c0565b6040516101a89190612bc5565b60405180910390f35b6101cb60048036038101906101c69190612c32565b6104e6565b6040516101d89190612c7a565b60405180910390f35b6101e961053c565b005b61020560048036038101906102009190612c32565b61054e565b005b61020f610916565b60405161021c9190612cae565b60405180910390f35b61022d61091c565b60405161023a9190612c7a565b60405180910390f35b61025d60048036038101906102589190612cf5565b610933565b005b610267610dcc565b005b610283600480360381019061027e9190612c32565b610de0565b604051610291929190612d35565b60405180910390f35b6102b460048036038101906102af9190612d5e565b610fb4565b6040516102c49493929190612d9a565b60405180910390f35b6102d5611014565b6040516102e29190612ddf565b60405180910390f35b61030560048036038101906103009190612dfa565b61103d565b005b610321600480360381019061031c9190612e3a565b611353565b005b61032b6114fb565b6040516103389190612f9c565b60405180910390f35b61035b60048036038101906103569190612e3a565b61169a565b005b61037760048036038101906103729190612d5e565b611833565b6040516103849190612ddf565b60405180910390f35b610395611872565b005b6103b160048036038101906103ac9190612d5e565b611884565b005b6103cd60048036038101906103c89190612c32565b611a07565b6040516103dd9493929190612fbe565b60405180910390f35b61040060048036038101906103fb9190612c32565b611a57565b005b61041c60048036038101906104179190612c32565b611b55565b6040516104299190612c7a565b60405180910390f35b61044c60048036038101906104479190612c32565b611b75565b005b61046860048036038101906104639190612c32565b611f40565b005b610472611fc6565b60405161047f9190612ddf565b60405180910390f35b6104a2600480360381019061049d919061315c565b611fec565b005b6104be60048036038101906104b99190612d5e565b6123ee565b005b600260019054906101000a900473ffffffffffffffffffffffffffffffffffffffff1681565b6000600760008373ffffffffffffffffffffffffffffffffffffffff1673ffffffffffffffffffffffffffffffffffffffff16815260200190815260200160002060009054906101000a900460ff169050919050565b61054461281f565b61054c6128a6565b565b610556611014565b73ffffffffffffffffffffffffffffffffffffffff163373ffffffffffffffffffffffffffffffffffffffff1614806105dc5750600360009054906101000a900473ffffffffffffffffffffffffffffffffffffffff1673ffffffffffffffffffffffffffffffffffffffff163373ffffffffffffffffffffffffffffffffffffffff16145b61061b576040517f08c379a000000000000000000000000000000000000000000000000000000000815260040161061290613202565b60405180910390fd5b600073ffffffffffffffffffffffffffffffffffffffff168173ffffffffffffffffffffffffffffffffffffffff160361068a576040517f08c379a00000000000000000000000000000000000000000000000000000000081526004016106819061326e565b60405180910390fd5b600760008273ffffffffffffffffffffffffffffffffffffffff1673ffffffffffffffffffffffffffffffffffffffff16815260200190815260200160002060009054906101000a900460ff1615610717576040517f08c379a000000000000000000000000000000000000000000000000000000000815260040161070e906132da565b60405180910390fd5b604051806080016040528060045481526020016000815260200160008152602001600073ffffffffffffffffffffffffffffffffffffffff16815250600660008373ffffffffffffffffffffffffffffffffffffffff1673ffffffffffffffffffffffffffffffffffffffff16815260200190815260200160002060008201518160000155602082015181600101556040820151816002015560608201518160030160006101000a81548173ffffffffffffffffffffffffffffffffffffffff021916908373ffffffffffffffffffffffffffffffffffffffff1602179055509050506001600760008373ffffffffffffffffffffffffffffffffffffffff1673ffffffffffffffffffffffffffffffffffffffff16815260200190815260200160002060006101000a81548160ff0219169083151502179055506005819080600181540180825580915050600190039060005260206000200160009091909190916101000a81548173ffffffffffffffffffffffffffffffffffffffff021916908373ffffffffffffffffffffffffffffffffffffffff1602179055506004548173ffffffffffffffffffffffffffffffffffffffff167faf4da80e345398819d58f5ea80417035aa892535096c67610eea3c93bbf2ca3760405160405180910390a36004600081548092919061090e90613329565b919050555050565b60045481565b6000600260009054906101000a900460ff16905090565b61093b612909565b61094361294f565b600760003373ffffffffffffffffffffffffffffffffffffffff1673ffffffffffffffffffffffffffffffffffffffff16815260200190815260200160002060009054906101000a900460ff166109cf576040517f08c379a00000000000000000000000000000000000000000000000000000000081526004016109c6906133bd565b60405180910390fd5b6000600660008373ffffffffffffffffffffffffffffffffffffffff1673ffffffffffffffffffffffffffffffffffffffff168152602001908152602001600020905060008311610a55576040517f08c379a0000000000000000000000000000000000000000000000000000000008152600401610a4c90613429565b60405180910390fd5b8060010154831115610a9c576040517f08c379a0000000000000000000000000000000000000000000000000000000008152600401610a9390613495565b60405180910390fd5b82600260019054906101000a900473ffffffffffffffffffffffffffffffffffffffff1673ffffffffffffffffffffffffffffffffffffffff166370a08231306040518263ffffffff1660e01b8152600401610af89190612ddf565b602060405180830381865afa158015610b15573d6000803e3d6000fd5b505050506040513d601f19601f82011682018060405250810190610b3991906134ca565b1015610b7a576040517f08c379a0000000000000000000000000000000000000000000000000000000008152600401610b7190613543565b60405180910390fd5b82816001016000828254610b8e9190613563565b9250508190555082816002016000828254610ba99190613597565b925050819055506000600260019054906101000a900473ffffffffffffffffffffffffffffffffffffffff1673ffffffffffffffffffffffffffffffffffffffff166323b872dd3085876040518463ffffffff1660e01b8152600401610c11939291906135cb565b6020604051808303816000875af1158015610c30573d6000803e3d6000fd5b505050506040513d601f19601f82011682018060405250810190610c54919061362e565b905080610c96576040517f08c379a0000000000000000000000000000000000000000000000000000000008152600401610c8d906136a7565b60405180910390fd5b6008604051806080016040528060088054905081526020018573ffffffffffffffffffffffffffffffffffffffff1681526020018681526020014281525090806001815401808255809150506001900390600052602060002090600402016000909190919091506000820151816000015560208201518160010160006101000a81548173ffffffffffffffffffffffffffffffffffffffff021916908373ffffffffffffffffffffffffffffffffffffffff160217905550604082015181600201556060820151816003015550508273ffffffffffffffffffffffffffffffffffffffff167f812be816db82c66cd18ca8457005cd84689642d8ac4d38599cc6af444a2dc72a8584600201548560010154604051610db6939291906136c7565b60405180910390a25050610dc8612990565b5050565b610dd461281f565b610dde6000612999565b565b600080600073ffffffffffffffffffffffffffffffffffffffff168373ffffffffffffffffffffffffffffffffffffffff1603610e52576040517f08c379a0000000000000000000000000000000000000000000000000000000008152600401610e499061326e565b60405180910390fd5b600760008473ffffffffffffffffffffffffffffffffffffffff1673ffffffffffffffffffffffffffffffffffffffff16815260200190815260200160002060009054906101000a900460ff16610ede576040517f08c379a0000000000000000000000000000000000000000000000000000000008152600401610ed5906133bd565b60405180910390fd5b6000600660008573ffffffffffffffffffffffffffffffffffffffff1673ffffffffffffffffffffffffffffffffffffffff1681526020019081526020016000206040518060800160405290816000820154815260200160018201548152602001600282015481526020016003820160009054906101000a900473ffffffffffffffffffffffffffffffffffffffff1673ffffffffffffffffffffffffffffffffffffffff1673ffffffffffffffffffffffffffffffffffffffff16815250509050806040015181602001519250925050915091565b60088181548110610fc457600080fd5b90600052602060002090600402016000915090508060000154908060010160009054906101000a900473ffffffffffffffffffffffffffffffffffffffff16908060020154908060030154905084565b60008060009054906101000a900473ffffffffffffffffffffffffffffffffffffffff16905090565b611045611014565b73ffffffffffffffffffffffffffffffffffffffff163373ffffffffffffffffffffffffffffffffffffffff1614806110cb5750600360009054906101000a900473ffffffffffffffffffffffffffffffffffffffff1673ffffffffffffffffffffffffffffffffffffffff163373ffffffffffffffffffffffffffffffffffffffff16145b61110a576040517f08c379a000000000000000000000000000000000000000000000000000000000815260040161110190613202565b60405180910390fd5b600073ffffffffffffffffffffffffffffffffffffffff168273ffffffffffffffffffffffffffffffffffffffff1603611179576040517f08c379a00000000000000000000000000000000000000000000000000000000081526004016111709061374a565b60405180910390fd5b600073ffffffffffffffffffffffffffffffffffffffff168173ffffffffffffffffffffffffffffffffffffffff16036111e8576040517f08c379a00000000000000000000000000000000000000000000000000000000081526004016111df906137b6565b60405180910390fd5b600760008273ffffffffffffffffffffffffffffffffffffffff1673ffffffffffffffffffffffffffffffffffffffff16815260200190815260200160002060009054906101000a900460ff16611274576040517f08c379a000000000000000000000000000000000000000000000000000000000815260040161126b90613822565b60405180910390fd5b81600660008373ffffffffffffffffffffffffffffffffffffffff1673ffffffffffffffffffffffffffffffffffffffff16815260200190815260200160002060030160006101000a81548173ffffffffffffffffffffffffffffffffffffffff021916908373ffffffffffffffffffffffffffffffffffffffff1602179055508173ffffffffffffffffffffffffffffffffffffffff168173ffffffffffffffffffffffffffffffffffffffff167ff7b9883f256cf768ad054d3cfc455603983f3e2d2635d9dbe1a7f6f6546ca83a60405160405180910390a35050565b61135b61281f565b600073ffffffffffffffffffffffffffffffffffffffff168273ffffffffffffffffffffffffffffffffffffffff16036113ca576040517f08c379a00000000000000000000000000000000000000000000000000000000081526004016113c19061388e565b60405180910390fd5b600260019054906101000a900473ffffffffffffffffffffffffffffffffffffffff1673ffffffffffffffffffffffffffffffffffffffff1663a9059cbb83836040518363ffffffff1660e01b81526004016114279291906138ae565b6020604051808303816000875af1158015611446573d6000803e3d6000fd5b505050506040513d601f19601f8201168201806040525081019061146a919061362e565b6114a9576040517f08c379a00000000000000000000000000000000000000000000000000000000081526004016114a090613923565b60405180910390fd5b8173ffffffffffffffffffffffffffffffffffffffff167f058b581e2433b8b02263f5b0e5c2889fcb7b3495112884a3147619038fba46d8826040516114ef9190612cae565b60405180910390a25050565b60606000600580549050905060008167ffffffffffffffff81111561152357611522613019565b5b60405190808252806020026020018201604052801561155c57816020015b611549612b08565b8152602001906001900390816115415790505b50905060005b8281101561169157600660006005838154811061158257611581613943565b5b9060005260206000200160009054906101000a900473ffffffffffffffffffffffffffffffffffffffff1673ffffffffffffffffffffffffffffffffffffffff1673ffffffffffffffffffffffffffffffffffffffff1681526020019081526020016000206040518060800160405290816000820154815260200160018201548152602001600282015481526020016003820160009054906101000a900473ffffffffffffffffffffffffffffffffffffffff1673ffffffffffffffffffffffffffffffffffffffff1673ffffffffffffffffffffffffffffffffffffffff168152505082828151811061167957611678613943565b5b60200260200101819052508080600101915050611562565b50809250505090565b6116a2611014565b73ffffffffffffffffffffffffffffffffffffffff163373ffffffffffffffffffffffffffffffffffffffff1614806117285750600360009054906101000a900473ffffffffffffffffffffffffffffffffffffffff1673ffffffffffffffffffffffffffffffffffffffff163373ffffffffffffffffffffffffffffffffffffffff16145b611767576040517f08c379a000000000000000000000000000000000000000000000000000000000815260040161175e90613202565b60405180910390fd5b600073ffffffffffffffffffffffffffffffffffffffff168273ffffffffffffffffffffffffffffffffffffffff16036117d6576040517f08c379a00000000000000000000000000000000000000000000000000000000081526004016117cd9061388e565b60405180910390fd5b80600660008473ffffffffffffffffffffffffffffffffffffffff1673ffffffffffffffffffffffffffffffffffffffff16815260200190815260200160002060010160008282546118289190613597565b925050819055505050565b6005818154811061184357600080fd5b906000526020600020016000915054906101000a900473ffffffffffffffffffffffffffffffffffffffff1681565b61187a61281f565b611882612a5d565b565b61188c61294f565b600081116118cf576040517f08c379a00000000000000000000000000000000000000000000000000000000081526004016118c690613429565b60405180910390fd5b6000600260019054906101000a900473ffffffffffffffffffffffffffffffffffffffff1673ffffffffffffffffffffffffffffffffffffffff166323b872dd3330856040518463ffffffff1660e01b8152600401611930939291906135cb565b6020604051808303816000875af115801561194f573d6000803e3d6000fd5b505050506040513d601f19601f82011682018060405250810190611973919061362e565b9050806119b5576040517f08c379a00000000000000000000000000000000000000000000000000000000081526004016119ac906139be565b60405180910390fd5b3373ffffffffffffffffffffffffffffffffffffffff167f2da466a7b24304f47e87fa2e1e5a81b9831ce54fec19055ce277ca2f39ba42c4836040516119fb9190612cae565b60405180910390a25050565b60066020528060005260406000206000915090508060000154908060010154908060020154908060030160009054906101000a900473ffffffffffffffffffffffffffffffffffffffff16905084565b611a5f61281f565b600073ffffffffffffffffffffffffffffffffffffffff168173ffffffffffffffffffffffffffffffffffffffff1603611ace576040517f08c379a0000000000000000000000000000000000000000000000000000000008152600401611ac59061388e565b60405180910390fd5b80600360006101000a81548173ffffffffffffffffffffffffffffffffffffffff021916908373ffffffffffffffffffffffffffffffffffffffff1602179055508073ffffffffffffffffffffffffffffffffffffffff167fe3162ce634ee4c6e39c868aa130f44228244e7469c577a852dd02e9fd9cb59c360405160405180910390a250565b60076020528060005260406000206000915054906101000a900460ff1681565b611b7d611014565b73ffffffffffffffffffffffffffffffffffffffff163373ffffffffffffffffffffffffffffffffffffffff161480611c035750600360009054906101000a900473ffffffffffffffffffffffffffffffffffffffff1673ffffffffffffffffffffffffffffffffffffffff163373ffffffffffffffffffffffffffffffffffffffff16145b611c42576040517f08c379a0000000000000000000000000000000000000000000000000000000008152600401611c3990613202565b60405180910390fd5b600760008273ffffffffffffffffffffffffffffffffffffffff1673ffffffffffffffffffffffffffffffffffffffff16815260200190815260200160002060009054906101000a900460ff16611cce576040517f08c379a0000000000000000000000000000000000000000000000000000000008152600401611cc590613a2a565b60405180910390fd5b600760008273ffffffffffffffffffffffffffffffffffffffff1673ffffffffffffffffffffffffffffffffffffffff16815260200190815260200160002060006101000a81549060ff0219169055600660008273ffffffffffffffffffffffffffffffffffffffff1673ffffffffffffffffffffffffffffffffffffffff168152602001908152602001600020600080820160009055600182016000905560028201600090556003820160006101000a81549073ffffffffffffffffffffffffffffffffffffffff0219169055505060005b600580549050811015611f3c578173ffffffffffffffffffffffffffffffffffffffff1660058281548110611dd957611dd8613943565b5b9060005260206000200160009054906101000a900473ffffffffffffffffffffffffffffffffffffffff1673ffffffffffffffffffffffffffffffffffffffff1603611f2f5760056001600580549050611e339190613563565b81548110611e4457611e43613943565b5b9060005260206000200160009054906101000a900473ffffffffffffffffffffffffffffffffffffffff1660058281548110611e8357611e82613943565b5b9060005260206000200160006101000a81548173ffffffffffffffffffffffffffffffffffffffff021916908373ffffffffffffffffffffffffffffffffffffffff1602179055506005805480611edd57611edc613a4a565b5b6001900381819060005260206000200160006101000a81549073ffffffffffffffffffffffffffffffffffffffff0219169055905560046000815480929190611f2590613a79565b9190505550611f3c565b8080600101915050611da1565b5050565b611f4861281f565b600073ffffffffffffffffffffffffffffffffffffffff168173ffffffffffffffffffffffffffffffffffffffff1603611fba5760006040517f1e4fbdf7000000000000000000000000000000000000000000000000000000008152600401611fb19190612ddf565b60405180910390fd5b611fc381612999565b50565b600360009054906101000a900473ffffffffffffffffffffffffffffffffffffffff1681565b611ff4611014565b73ffffffffffffffffffffffffffffffffffffffff163373ffffffffffffffffffffffffffffffffffffffff16148061207a5750600360009054906101000a900473ffffffffffffffffffffffffffffffffffffffff1673ffffffffffffffffffffffffffffffffffffffff163373ffffffffffffffffffffffffffffffffffffffff16145b6120b9576040517f08c379a00000000000000000000000000000000000000000000000000000000081526004016120b090613202565b60405180910390fd5b60005b81518110156123ea5760008282815181106120da576120d9613943565b5b60200260200101519050600073ffffffffffffffffffffffffffffffffffffffff168173ffffffffffffffffffffffffffffffffffffffff1603612153576040517f08c379a000000000000000000000000000000000000000000000000000000000815260040161214a9061326e565b60405180910390fd5b600760008273ffffffffffffffffffffffffffffffffffffffff1673ffffffffffffffffffffffffffffffffffffffff16815260200190815260200160002060009054906101000a900460ff16156121e0576040517f08c379a00000000000000000000000000000000000000000000000000000000081526004016121d7906132da565b60405180910390fd5b604051806080016040528060045481526020016000815260200160008152602001600073ffffffffffffffffffffffffffffffffffffffff16815250600660008373ffffffffffffffffffffffffffffffffffffffff1673ffffffffffffffffffffffffffffffffffffffff16815260200190815260200160002060008201518160000155602082015181600101556040820151816002015560608201518160030160006101000a81548173ffffffffffffffffffffffffffffffffffffffff021916908373ffffffffffffffffffffffffffffffffffffffff1602179055509050506001600760008373ffffffffffffffffffffffffffffffffffffffff1673ffffffffffffffffffffffffffffffffffffffff16815260200190815260200160002060006101000a81548160ff0219169083151502179055506005819080600181540180825580915050600190039060005260206000200160009091909190916101000a81548173ffffffffffffffffffffffffffffffffffffffff021916908373ffffffffffffffffffffffffffffffffffffffff1602179055506004548173ffffffffffffffffffffffffffffffffffffffff167faf4da80e345398819d58f5ea80417035aa892535096c67610eea3c93bbf2ca3760405160405180910390a3600460008154809291906123d790613329565b91905055505080806001019150506120bc565b5050565b6123f661294f565b6123fe611014565b73ffffffffffffffffffffffffffffffffffffffff163373ffffffffffffffffffffffffffffffffffffffff1614806124845750600360009054906101000a900473ffffffffffffffffffffffffffffffffffffffff1673ffffffffffffffffffffffffffffffffffffffff163373ffffffffffffffffffffffffffffffffffffffff16145b6124c3576040517f08c379a00000000000000000000000000000000000000000000000000000000081526004016124ba90613202565b60405180910390fd5b60008111612506576040517f08c379a00000000000000000000000000000000000000000000000000000000081526004016124fd90613429565b60405180910390fd5b60006005805490501161254e576040517f08c379a000000000000000000000000000000000000000000000000000000000815260040161254590613aee565b60405180910390fd5b6000600580549050826125619190613b0e565b9050600081116125a6576040517f08c379a000000000000000000000000000000000000000000000000000000000815260040161259d90613b9c565b60405180910390fd5b80600260019054906101000a900473ffffffffffffffffffffffffffffffffffffffff1673ffffffffffffffffffffffffffffffffffffffff166370a08231306040518263ffffffff1660e01b81526004016126029190612ddf565b602060405180830381865afa15801561261f573d6000803e3d6000fd5b505050506040513d601f19601f8201168201806040525081019061264391906134ca565b1015612684576040517f08c379a000000000000000000000000000000000000000000000000000000000815260040161267b90613c08565b60405180910390fd5b60005b60058054905081101561281a576000600582815481106126aa576126a9613943565b5b9060005260206000200160009054906101000a900473ffffffffffffffffffffffffffffffffffffffff1690506000600260019054906101000a900473ffffffffffffffffffffffffffffffffffffffff1673ffffffffffffffffffffffffffffffffffffffff1663a9059cbb83876040518363ffffffff1660e01b81526004016127369291906138ae565b6020604051808303816000875af1158015612755573d6000803e3d6000fd5b505050506040513d601f19601f82011682018060405250810190612779919061362e565b9050806127bb576040517f08c379a00000000000000000000000000000000000000000000000000000000081526004016127b290613c74565b60405180910390fd5b8173ffffffffffffffffffffffffffffffffffffffff167fea8a85bd7340d633ecd95a4afdcdeef6d53c4dd0ef96d3d49cccab0361ee630f8642604051612803929190612d35565b60405180910390a250508080600101915050612687565b505050565b612827612ac0565b73ffffffffffffffffffffffffffffffffffffffff16612845611014565b73ffffffffffffffffffffffffffffffffffffffff16146128a457612868612ac0565b6040517f118cdaa700000000000000000000000000000000000000000000000000000000815260040161289b9190612ddf565b60405180910390fd5b565b6128ae61294f565b6001600260006101000a81548160ff0219169083151502179055507f62e78cea01bee320cd4e420270b5ea74000d11b0c9f74754ebdbfc544b05a2586128f2612ac0565b6040516128ff9190612ddf565b60405180910390a1565b600260015403612945576040517f3ee5aeb500000000000000000000000000000000000000000000000000000000815260040160405180910390fd5b6002600181905550565b61295761091c565b1561298e576040517fd93c066500000000000000000000000000000000000000000000000000000000815260040160405180910390fd5b565b60018081905550565b60008060009054906101000a900473ffffffffffffffffffffffffffffffffffffffff169050816000806101000a81548173ffffffffffffffffffffffffffffffffffffffff021916908373ffffffffffffffffffffffffffffffffffffffff1602179055508173ffffffffffffffffffffffffffffffffffffffff168173ffffffffffffffffffffffffffffffffffffffff167f8be0079c531659141344cd1fd0a4f28419497f9722a3daafe3b4186f6b6457e060405160405180910390a35050565b612a65612ac8565b6000600260006101000a81548160ff0219169083151502179055507f5db9ee0a495bf2e6ff9c91a7834c1ba4fdd244a5e8aa4e537bd38aeae4b073aa612aa9612ac0565b604051612ab69190612ddf565b60405180910390a1565b600033905090565b612ad061091c565b612b06576040517f8dfc202b00000000000000000000000000000000000000000000000000000000815260040160405180910390fd5b565b6040518060800160405280600081526020016000815260200160008152602001600073ffffffffffffffffffffffffffffffffffffffff1681525090565b600073ffffffffffffffffffffffffffffffffffffffff82169050919050565b6000819050919050565b6000612b8b612b86612b8184612b46565b612b66565b612b46565b9050919050565b6000612b9d82612b70565b9050919050565b6000612baf82612b92565b9050919050565b612bbf81612ba4565b82525050565b6000602082019050612bda6000830184612bb6565b92915050565b6000604051905090565b600080fd5b600080fd5b6000612bff82612b46565b9050919050565b612c0f81612bf4565b8114612c1a57600080fd5b50565b600081359050612c2c81612c06565b92915050565b600060208284031215612c4857612c47612bea565b5b6000612c5684828501612c1d565b91505092915050565b60008115159050919050565b612c7481612c5f565b82525050565b6000602082019050612c8f6000830184612c6b565b92915050565b6000819050919050565b612ca881612c95565b82525050565b6000602082019050612cc36000830184612c9f565b92915050565b612cd281612c95565b8114612cdd57600080fd5b50565b600081359050612cef81612cc9565b92915050565b60008060408385031215612d0c57612d0b612bea565b5b6000612d1a85828601612ce0565b9250506020612d2b85828601612c1d565b9150509250929050565b6000604082019050612d4a6000830185612c9f565b612d576020830184612c9f565b9392505050565b600060208284031215612d7457612d73612bea565b5b6000612d8284828501612ce0565b91505092915050565b612d9481612bf4565b82525050565b6000608082019050612daf6000830187612c9f565b612dbc6020830186612d8b565b612dc96040830185612c9f565b612dd66060830184612c9f565b95945050505050565b6000602082019050612df46000830184612d8b565b92915050565b60008060408385031215612e1157612e10612bea565b5b6000612e1f85828601612c1d565b9250506020612e3085828601612c1d565b9150509250929050565b60008060408385031215612e5157612e50612bea565b5b6000612e5f85828601612c1d565b9250506020612e7085828601612ce0565b9150509250929050565b600081519050919050565b600082825260208201905092915050565b6000819050602082019050919050565b612eaf81612c95565b82525050565b612ebe81612bf4565b82525050565b608082016000820151612eda6000850182612ea6565b506020820151612eed6020850182612ea6565b506040820151612f006040850182612ea6565b506060820151612f136060850182612eb5565b50505050565b6000612f258383612ec4565b60808301905092915050565b6000602082019050919050565b6000612f4982612e7a565b612f538185612e85565b9350612f5e83612e96565b8060005b83811015612f8f578151612f768882612f19565b9750612f8183612f31565b925050600181019050612f62565b5085935050505092915050565b60006020820190508181036000830152612fb68184612f3e565b905092915050565b6000608082019050612fd36000830187612c9f565b612fe06020830186612c9f565b612fed6040830185612c9f565b612ffa6060830184612d8b565b95945050505050565b600080fd5b6000601f19601f8301169050919050565b7f4e487b7100000000000000000000000000000000000000000000000000000000600052604160045260246000fd5b61305182613008565b810181811067ffffffffffffffff821117156130705761306f613019565b5b80604052505050565b6000613083612be0565b905061308f8282613048565b919050565b600067ffffffffffffffff8211156130af576130ae613019565b5b602082029050602081019050919050565b600080fd5b60006130d86130d384613094565b613079565b905080838252602082019050602084028301858111156130fb576130fa6130c0565b5b835b8181101561312457806131108882612c1d565b8452602084019350506020810190506130fd565b5050509392505050565b600082601f83011261314357613142613003565b5b81356131538482602086016130c5565b91505092915050565b60006020828403121561317257613171612bea565b5b600082013567ffffffffffffffff8111156131905761318f612bef565b5b61319c8482850161312e565b91505092915050565b600082825260208201905092915050565b7f4e6f7420617574686f72697365642e0000000000000000000000000000000000600082015250565b60006131ec600f836131a5565b91506131f7826131b6565b602082019050919050565b6000602082019050818103600083015261321b816131df565b9050919050565b7f496e76616c696420616464726573732e00000000000000000000000000000000600082015250565b60006132586010836131a5565b915061326382613222565b602082019050919050565b600060208201905081810360008301526132878161324b565b9050919050565b7f416c72656164792061646465642e000000000000000000000000000000000000600082015250565b60006132c4600e836131a5565b91506132cf8261328e565b602082019050919050565b600060208201905081810360008301526132f3816132b7565b9050919050565b7f4e487b7100000000000000000000000000000000000000000000000000000000600052601160045260246000fd5b600061333482612c95565b91507fffffffffffffffffffffffffffffffffffffffffffffffffffffffffffffffff8203613366576133656132fa565b5b600182019050919050565b7f4e6f742061207465737465722e00000000000000000000000000000000000000600082015250565b60006133a7600d836131a5565b91506133b282613371565b602082019050919050565b600060208201905081810360008301526133d68161339a565b9050919050565b7f416d6f756e74206d757374206265203e20300000000000000000000000000000600082015250565b60006134136012836131a5565b915061341e826133dd565b602082019050919050565b6000602082019050818103600083015261344281613406565b9050919050565b7f4578636565647320756e636c61696d65642062616c616e636500000000000000600082015250565b600061347f6019836131a5565b915061348a82613449565b602082019050919050565b600060208201905081810360008301526134ae81613472565b9050919050565b6000815190506134c481612cc9565b92915050565b6000602082840312156134e0576134df612bea565b5b60006134ee848285016134b5565b91505092915050565b7f436f6e747261637420756e64657266756e646564000000000000000000000000600082015250565b600061352d6014836131a5565b9150613538826134f7565b602082019050919050565b6000602082019050818103600083015261355c81613520565b9050919050565b600061356e82612c95565b915061357983612c95565b9250828203905081811115613591576135906132fa565b5b92915050565b60006135a282612c95565b91506135ad83612c95565b92508282019050808211156135c5576135c46132fa565b5b92915050565b60006060820190506135e06000830186612d8b565b6135ed6020830185612d8b565b6135fa6040830184612c9f565b949350505050565b61360b81612c5f565b811461361657600080fd5b50565b60008151905061362881613602565b92915050565b60006020828403121561364457613643612bea565b5b600061365284828501613619565b91505092915050565b7f5472616e73666572206661696c65640000000000000000000000000000000000600082015250565b6000613691600f836131a5565b915061369c8261365b565b602082019050919050565b600060208201905081810360008301526136c081613684565b9050919050565b60006060820190506136dc6000830186612c9f565b6136e96020830185612c9f565b6136f66040830184612c9f565b949350505050565b7f496e76616c696420736d6172742077616c6c6574206164647265737300000000600082015250565b6000613734601c836131a5565b915061373f826136fe565b602082019050919050565b6000602082019050818103600083015261376381613727565b9050919050565b7f496e76616c6964206e6f726d616c206164647265737300000000000000000000600082015250565b60006137a06016836131a5565b91506137ab8261376a565b602082019050919050565b600060208201905081810360008301526137cf81613793565b9050919050565b7f41646472657373206e6f74207265676973746572656420617320746573746572600082015250565b600061380c6020836131a5565b9150613817826137d6565b602082019050919050565b6000602082019050818103600083015261383b816137ff565b9050919050565b7f496e76616c696420616464726573730000000000000000000000000000000000600082015250565b6000613878600f836131a5565b915061388382613842565b602082019050919050565b600060208201905081810360008301526138a78161386b565b9050919050565b60006040820190506138c36000830185612d8b565b6138d06020830184612c9f565b9392505050565b7f5769746864726177206661696c65642e00000000000000000000000000000000600082015250565b600061390d6010836131a5565b9150613918826138d7565b602082019050919050565b6000602082019050818103600083015261393c81613900565b9050919050565b7f4e487b7100000000000000000000000000000000000000000000000000000000600052603260045260246000fd5b7f5472616e73666572206661696c65642e00000000000000000000000000000000600082015250565b60006139a86010836131a5565b91506139b382613972565b602082019050919050565b600060208201905081810360008301526139d78161399b565b9050919050565b7f4e6f742061207465737465720000000000000000000000000000000000000000600082015250565b6000613a14600c836131a5565b9150613a1f826139de565b602082019050919050565b60006020820190508181036000830152613a4381613a07565b9050919050565b7f4e487b7100000000000000000000000000000000000000000000000000000000600052603160045260246000fd5b6000613a8482612c95565b915060008203613a9757613a966132fa565b5b600182039050919050565b7f4e6f207465737465727300000000000000000000000000000000000000000000600082015250565b6000613ad8600a836131a5565b9150613ae382613aa2565b602082019050919050565b60006020820190508181036000830152613b0781613acb565b9050919050565b6000613b1982612c95565b9150613b2483612c95565b9250828202613b3281612c95565b91508282048414831517613b4957613b486132fa565b5b5092915050565b7f416d6f756e7420746f6f20736d616c6c20706572207465737465720000000000600082015250565b6000613b86601b836131a5565b9150613b9182613b50565b602082019050919050565b60006020820190508181036000830152613bb581613b79565b9050919050565b7f496e73756666696369656e742066756e64730000000000000000000000000000600082015250565b6000613bf26012836131a5565b9150613bfd82613bbc565b602082019050919050565b60006020820190508181036000830152613c2181613be5565b9050919050565b7f556e61626c6520746f2073656e642e0000000000000000000000000000000000600082015250565b6000613c5e600f836131a5565b9150613c6982613c28565b602082019050919050565b60006020820190508181036000830152613c8d81613c51565b905091905056fea26469706673582212208983de6fb8551b375a1f7137b5d75ff40367eb37e02baa77bc614a60c6d13b3264736f6c63430008180033",
  "linkReferences": {},
  "deployedLinkReferences": {}
}