{
  "_format": "hh-sol-artifact-1",
  "contractName": "EarnBase",
  "sourceName": "contracts/EarnBase.sol",
  "abi": [
    {
      "inputs": [],
      "stateMutability": "nonpayable",
      "type": "constructor"
    },
    {
      "inputs": [],
      "name": "EnforcedPause",
      "type": "error"
    },
    {
      "inputs": [],
      "name": "ExpectedPause",
      "type": "error"
    },
    {
      "inputs": [
        {
          "internalType": "address",
          "name": "owner",
          "type": "address"
        }
      ],
      "name": "OwnableInvalidOwner",
      "type": "error"
    },
    {
      "inputs": [
        {
          "internalType": "address",
          "name": "account",
          "type": "address"
        }
      ],
      "name": "OwnableUnauthorizedAccount",
      "type": "error"
    },
    {
      "inputs": [],
      "name": "ReentrancyGuardReentrantCall",
      "type": "error"
    },
    {
      "anonymous": false,
      "inputs": [
        {
          "indexed": true,
          "internalType": "address",
          "name": "agent",
          "type": "address"
        }
      ],
      "name": "AgentSet",
      "type": "event"
    },
    {
      "anonymous": false,
      "inputs": [
        {
          "indexed": true,
          "internalType": "address",
          "name": "to",
          "type": "address"
        },
        {
          "indexed": false,
          "internalType": "uint256",
          "name": "amount",
          "type": "uint256"
        }
      ],
      "name": "AmountWithdrawn",
      "type": "event"
    },
    {
      "anonymous": false,
      "inputs": [
        {
          "indexed": true,
          "internalType": "address",
          "name": "depositor",
          "type": "address"
        },
        {
          "indexed": false,
          "internalType": "uint256",
          "name": "amount",
          "type": "uint256"
        }
      ],
      "name": "Deposited",
      "type": "event"
    },
    {
      "anonymous": false,
      "inputs": [
        {
          "indexed": true,
          "internalType": "address",
          "name": "previousOwner",
          "type": "address"
        },
        {
          "indexed": true,
          "internalType": "address",
          "name": "newOwner",
          "type": "address"
        }
      ],
      "name": "OwnershipTransferred",
      "type": "event"
    },
    {
      "anonymous": false,
      "inputs": [
        {
          "indexed": false,
          "internalType": "address",
          "name": "account",
          "type": "address"
        }
      ],
      "name": "Paused",
      "type": "event"
    },
    {
      "anonymous": false,
      "inputs": [
        {
          "indexed": true,
          "internalType": "address",
          "name": "tester",
          "type": "address"
        },
        {
          "indexed": false,
          "internalType": "uint256",
          "name": "amount",
          "type": "uint256"
        },
        {
          "indexed": false,
          "internalType": "uint256",
          "name": "totalClaimed",
          "type": "uint256"
        },
        {
          "indexed": false,
          "internalType": "uint256",
          "name": "totalUnclaimed",
          "type": "uint256"
        }
      ],
      "name": "RewardClaimed",
      "type": "event"
    },
    {
      "anonymous": false,
      "inputs": [
        {
          "indexed": true,
          "internalType": "address",
          "name": "tester",
          "type": "address"
        },
        {
          "indexed": true,
          "internalType": "uint256",
          "name": "testerId",
          "type": "uint256"
        }
      ],
      "name": "TesterAdded",
      "type": "event"
    },
    {
      "anonymous": false,
      "inputs": [
        {
          "indexed": false,
          "internalType": "address",
          "name": "account",
          "type": "address"
        }
      ],
      "name": "Unpaused",
      "type": "event"
    },
    {
      "inputs": [
        {
          "internalType": "address",
          "name": "tester",
          "type": "address"
        },
        {
          "internalType": "uint256",
          "name": "amount",
          "type": "uint256"
        }
      ],
      "name": "addRewards",
      "outputs": [],
      "stateMutability": "nonpayable",
      "type": "function"
    },
    {
      "inputs": [
        {
          "internalType": "address[]",
          "name": "testerAddresses",
          "type": "address[]"
        }
      ],
      "name": "addTesters",
      "outputs": [],
      "stateMutability": "nonpayable",
      "type": "function"
    },
    {
      "inputs": [],
      "name": "agent",
      "outputs": [
        {
          "internalType": "address",
          "name": "",
          "type": "address"
        }
      ],
      "stateMutability": "view",
      "type": "function"
    },
    {
      "inputs": [],
      "name": "cUSDToken",
      "outputs": [
        {
          "internalType": "contract IERC20",
          "name": "",
          "type": "address"
        }
      ],
      "stateMutability": "view",
      "type": "function"
    },
    {
      "inputs": [
        {
          "internalType": "uint256",
          "name": "amount",
          "type": "uint256"
        }
      ],
      "name": "claimRewards",
      "outputs": [],
      "stateMutability": "nonpayable",
      "type": "function"
    },
    {
      "inputs": [
        {
          "internalType": "uint256",
          "name": "amount",
          "type": "uint256"
        }
      ],
      "name": "depositCUSD",
      "outputs": [],
      "stateMutability": "nonpayable",
      "type": "function"
    },
    {
      "inputs": [
        {
          "internalType": "address",
          "name": "to",
          "type": "address"
        },
        {
          "internalType": "uint256",
          "name": "amount",
          "type": "uint256"
        }
      ],
      "name": "emergencyWithdraw",
      "outputs": [],
      "stateMutability": "nonpayable",
      "type": "function"
    },
    {
      "inputs": [
        {
          "internalType": "address",
          "name": "_tester",
          "type": "address"
        }
      ],
      "name": "getTestersRewards",
      "outputs": [
        {
          "internalType": "uint256",
          "name": "claimed",
          "type": "uint256"
        },
        {
          "internalType": "uint256",
          "name": "unclaimed",
          "type": "uint256"
        }
      ],
      "stateMutability": "view",
      "type": "function"
    },
    {
      "inputs": [
        {
          "internalType": "address",
          "name": "_tester",
          "type": "address"
        }
      ],
      "name": "isATester",
      "outputs": [
        {
          "internalType": "bool",
          "name": "",
          "type": "bool"
        }
      ],
      "stateMutability": "view",
      "type": "function"
    },
    {
      "inputs": [
        {
          "internalType": "address",
          "name": "",
          "type": "address"
        }
      ],
      "name": "isTester",
      "outputs": [
        {
          "internalType": "bool",
          "name": "",
          "type": "bool"
        }
      ],
      "stateMutability": "view",
      "type": "function"
    },
    {
      "inputs": [],
      "name": "owner",
      "outputs": [
        {
          "internalType": "address",
          "name": "",
          "type": "address"
        }
      ],
      "stateMutability": "view",
      "type": "function"
    },
    {
      "inputs": [],
      "name": "pauseContract",
      "outputs": [],
      "stateMutability": "nonpayable",
      "type": "function"
    },
    {
      "inputs": [],
      "name": "paused",
      "outputs": [
        {
          "internalType": "bool",
          "name": "",
          "type": "bool"
        }
      ],
      "stateMutability": "view",
      "type": "function"
    },
    {
      "inputs": [
        {
          "internalType": "uint256",
          "name": "",
          "type": "uint256"
        }
      ],
      "name": "payments",
      "outputs": [
        {
          "internalType": "uint256",
          "name": "id",
          "type": "uint256"
        },
        {
          "internalType": "address",
          "name": "receiver",
          "type": "address"
        },
        {
          "internalType": "uint256",
          "name": "amount",
          "type": "uint256"
        },
        {
          "internalType": "uint256",
          "name": "timestamp",
          "type": "uint256"
        }
      ],
      "stateMutability": "view",
      "type": "function"
    },
    {
      "inputs": [],
      "name": "renounceOwnership",
      "outputs": [],
      "stateMutability": "nonpayable",
      "type": "function"
    },
    {
      "inputs": [
        {
          "internalType": "address",
          "name": "_agent",
          "type": "address"
        }
      ],
      "name": "setAgent",
      "outputs": [],
      "stateMutability": "nonpayable",
      "type": "function"
    },
    {
      "inputs": [
        {
          "internalType": "address",
          "name": "",
          "type": "address"
        }
      ],
      "name": "testers",
      "outputs": [
        {
          "internalType": "uint256",
          "name": "id",
          "type": "uint256"
        },
        {
          "internalType": "uint256",
          "name": "unclaimedAmount",
          "type": "uint256"
        },
        {
          "internalType": "uint256",
          "name": "claimedAmount",
          "type": "uint256"
        }
      ],
      "stateMutability": "view",
      "type": "function"
    },
    {
      "inputs": [],
      "name": "totalTesters",
      "outputs": [
        {
          "internalType": "uint256",
          "name": "",
          "type": "uint256"
        }
      ],
      "stateMutability": "view",
      "type": "function"
    },
    {
      "inputs": [
        {
          "internalType": "address",
          "name": "newOwner",
          "type": "address"
        }
      ],
      "name": "transferOwnership",
      "outputs": [],
      "stateMutability": "nonpayable",
      "type": "function"
    },
    {
      "inputs": [],
      "name": "unpauseContract",
      "outputs": [],
      "stateMutability": "nonpayable",
      "type": "function"
    }
  ],
  "bytecode": "0x60806040523480156200001157600080fd5b5033600073ffffffffffffffffffffffffffffffffffffffff168173ffffffffffffffffffffffffffffffffffffffff1603620000885760006040517f1e4fbdf70000000000000000000000000000000000000000000000000000000081526004016200007f91906200025a565b60405180910390fd5b62000099816200015160201b60201c565b506001808190555073765de816845861e75a25fca122bb6898b8b1282a600260016101000a81548173ffffffffffffffffffffffffffffffffffffffff021916908373ffffffffffffffffffffffffffffffffffffffff160217905550731c059486b99d6a2d9372827b70084fbfd014e978600360006101000a81548173ffffffffffffffffffffffffffffffffffffffff021916908373ffffffffffffffffffffffffffffffffffffffff16021790555062000277565b60008060009054906101000a900473ffffffffffffffffffffffffffffffffffffffff169050816000806101000a81548173ffffffffffffffffffffffffffffffffffffffff021916908373ffffffffffffffffffffffffffffffffffffffff1602179055508173ffffffffffffffffffffffffffffffffffffffff168173ffffffffffffffffffffffffffffffffffffffff167f8be0079c531659141344cd1fd0a4f28419497f9722a3daafe3b4186f6b6457e060405160405180910390a35050565b600073ffffffffffffffffffffffffffffffffffffffff82169050919050565b6000620002428262000215565b9050919050565b620002548162000235565b82525050565b600060208201905062000271600083018462000249565b92915050565b61246280620002876000396000f3fe608060405234801561001057600080fd5b506004361061012c5760003560e01c806395ccea67116100ad578063bcf685ed11610071578063bcf685ed146102fd578063bd630dc714610319578063f2fde38b14610349578063f5ff5c7614610365578063f6375dfd146103835761012c565b806395ccea671461026d578063a9fc507b14610289578063b33712c5146102a5578063bb2a96ff146102af578063bcb2fb2d146102cb5761012c565b80635c975abb116100f45780635c975abb146101c3578063715018a6146101e15780637d5c4d61146101eb57806387d817891461021c5780638da5cb5b1461024f5761012c565b80630962ef79146101315780630ea86ad81461014d5780633a1eb86b1461016b578063439766ce1461019b5780634c6705e8146101a5575b600080fd5b61014b600480360381019061014691906118bf565b61039f565b005b610155610835565b604051610162919061196b565b60405180910390f35b610185600480360381019061018091906119c4565b61085b565b6040516101929190611a0c565b60405180910390f35b6101a36108b1565b005b6101ad6108c3565b6040516101ba9190611a36565b60405180910390f35b6101cb6108c9565b6040516101d89190611a0c565b60405180910390f35b6101e96108e0565b005b610205600480360381019061020091906119c4565b6108f4565b604051610213929190611a51565b60405180910390f35b610236600480360381019061023191906118bf565b610a72565b6040516102469493929190611a89565b60405180910390f35b610257610ad2565b6040516102649190611ace565b60405180910390f35b61028760048036038101906102829190611ae9565b610afb565b005b6102a3600480360381019061029e9190611ae9565b610ca3565b005b6102ad610ec8565b005b6102c960048036038101906102c491906118bf565b610eda565b005b6102e560048036038101906102e091906119c4565b61105d565b6040516102f493929190611b29565b60405180910390f35b610317600480360381019061031291906119c4565b611087565b005b610333600480360381019061032e91906119c4565b611185565b6040516103409190611a0c565b60405180910390f35b610363600480360381019061035e91906119c4565b6111a5565b005b61036d61122b565b60405161037a9190611ace565b60405180910390f35b61039d60048036038101906103989190611cb9565b611251565b005b6103a761158c565b6103af6115d2565b600660003373ffffffffffffffffffffffffffffffffffffffff1673ffffffffffffffffffffffffffffffffffffffff16815260200190815260200160002060009054906101000a900460ff1661043b576040517f08c379a000000000000000000000000000000000000000000000000000000000815260040161043290611d5f565b60405180910390fd5b6000600560003373ffffffffffffffffffffffffffffffffffffffff1673ffffffffffffffffffffffffffffffffffffffff1681526020019081526020016000209050600082116104c1576040517f08c379a00000000000000000000000000000000000000000000000000000000081526004016104b890611dcb565b60405180910390fd5b8060010154821115610508576040517f08c379a00000000000000000000000000000000000000000000000000000000081526004016104ff90611e37565b60405180910390fd5b81600260019054906101000a900473ffffffffffffffffffffffffffffffffffffffff1673ffffffffffffffffffffffffffffffffffffffff166370a08231306040518263ffffffff1660e01b81526004016105649190611ace565b602060405180830381865afa158015610581573d6000803e3d6000fd5b505050506040513d601f19601f820116820180604052508101906105a59190611e6c565b10156105e6576040517f08c379a00000000000000000000000000000000000000000000000000000000081526004016105dd90611ee5565b60405180910390fd5b818160010160008282546105fa9190611f34565b92505081905550818160020160008282546106159190611f68565b925050819055506000600260019054906101000a900473ffffffffffffffffffffffffffffffffffffffff1673ffffffffffffffffffffffffffffffffffffffff1663a9059cbb33856040518363ffffffff1660e01b815260040161067b929190611f9c565b6020604051808303816000875af115801561069a573d6000803e3d6000fd5b505050506040513d601f19601f820116820180604052508101906106be9190611ff1565b905080610700576040517f08c379a00000000000000000000000000000000000000000000000000000000081526004016106f79061206a565b60405180910390fd5b6007604051806080016040528060078054905081526020013373ffffffffffffffffffffffffffffffffffffffff1681526020018581526020014281525090806001815401808255809150506001900390600052602060002090600402016000909190919091506000820151816000015560208201518160010160006101000a81548173ffffffffffffffffffffffffffffffffffffffff021916908373ffffffffffffffffffffffffffffffffffffffff160217905550604082015181600201556060820151816003015550503373ffffffffffffffffffffffffffffffffffffffff167f812be816db82c66cd18ca8457005cd84689642d8ac4d38599cc6af444a2dc72a848460020154856001015460405161082093929190611b29565b60405180910390a25050610832611613565b50565b600260019054906101000a900473ffffffffffffffffffffffffffffffffffffffff1681565b6000600660008373ffffffffffffffffffffffffffffffffffffffff1673ffffffffffffffffffffffffffffffffffffffff16815260200190815260200160002060009054906101000a900460ff169050919050565b6108b961161c565b6108c16116a3565b565b60045481565b6000600260009054906101000a900460ff16905090565b6108e861161c565b6108f26000611706565b565b600080600073ffffffffffffffffffffffffffffffffffffffff168373ffffffffffffffffffffffffffffffffffffffff1603610966576040517f08c379a000000000000000000000000000000000000000000000000000000000815260040161095d906120d6565b60405180910390fd5b600660008473ffffffffffffffffffffffffffffffffffffffff1673ffffffffffffffffffffffffffffffffffffffff16815260200190815260200160002060009054906101000a900460ff166109f2576040517f08c379a00000000000000000000000000000000000000000000000000000000081526004016109e990611d5f565b60405180910390fd5b6000600560008573ffffffffffffffffffffffffffffffffffffffff1673ffffffffffffffffffffffffffffffffffffffff16815260200190815260200160002060405180606001604052908160008201548152602001600182015481526020016002820154815250509050806040015181602001519250925050915091565b60078181548110610a8257600080fd5b90600052602060002090600402016000915090508060000154908060010160009054906101000a900473ffffffffffffffffffffffffffffffffffffffff16908060020154908060030154905084565b60008060009054906101000a900473ffffffffffffffffffffffffffffffffffffffff16905090565b610b0361161c565b600073ffffffffffffffffffffffffffffffffffffffff168273ffffffffffffffffffffffffffffffffffffffff1603610b72576040517f08c379a0000000000000000000000000000000000000000000000000000000008152600401610b6990612142565b60405180910390fd5b600260019054906101000a900473ffffffffffffffffffffffffffffffffffffffff1673ffffffffffffffffffffffffffffffffffffffff1663a9059cbb83836040518363ffffffff1660e01b8152600401610bcf929190611f9c565b6020604051808303816000875af1158015610bee573d6000803e3d6000fd5b505050506040513d601f19601f82011682018060405250810190610c129190611ff1565b610c51576040517f08c379a0000000000000000000000000000000000000000000000000000000008152600401610c48906121ae565b60405180910390fd5b8173ffffffffffffffffffffffffffffffffffffffff167f058b581e2433b8b02263f5b0e5c2889fcb7b3495112884a3147619038fba46d882604051610c979190611a36565b60405180910390a25050565b610cab610ad2565b73ffffffffffffffffffffffffffffffffffffffff163373ffffffffffffffffffffffffffffffffffffffff161480610d315750600360009054906101000a900473ffffffffffffffffffffffffffffffffffffffff1673ffffffffffffffffffffffffffffffffffffffff163373ffffffffffffffffffffffffffffffffffffffff16145b610d70576040517f08c379a0000000000000000000000000000000000000000000000000000000008152600401610d679061221a565b60405180910390fd5b600073ffffffffffffffffffffffffffffffffffffffff168273ffffffffffffffffffffffffffffffffffffffff1603610ddf576040517f08c379a0000000000000000000000000000000000000000000000000000000008152600401610dd690612142565b60405180910390fd5b600660008373ffffffffffffffffffffffffffffffffffffffff1673ffffffffffffffffffffffffffffffffffffffff16815260200190815260200160002060009054906101000a900460ff16610e6b576040517f08c379a0000000000000000000000000000000000000000000000000000000008152600401610e6290612286565b60405180910390fd5b80600560008473ffffffffffffffffffffffffffffffffffffffff1673ffffffffffffffffffffffffffffffffffffffff1681526020019081526020016000206001016000828254610ebd9190611f68565b925050819055505050565b610ed061161c565b610ed86117ca565b565b610ee26115d2565b60008111610f25576040517f08c379a0000000000000000000000000000000000000000000000000000000008152600401610f1c90611dcb565b60405180910390fd5b6000600260019054906101000a900473ffffffffffffffffffffffffffffffffffffffff1673ffffffffffffffffffffffffffffffffffffffff166323b872dd3330856040518463ffffffff1660e01b8152600401610f86939291906122a6565b6020604051808303816000875af1158015610fa5573d6000803e3d6000fd5b505050506040513d601f19601f82011682018060405250810190610fc99190611ff1565b90508061100b576040517f08c379a000000000000000000000000000000000000000000000000000000000815260040161100290612329565b60405180910390fd5b3373ffffffffffffffffffffffffffffffffffffffff167f2da466a7b24304f47e87fa2e1e5a81b9831ce54fec19055ce277ca2f39ba42c4836040516110519190611a36565b60405180910390a25050565b60056020528060005260406000206000915090508060000154908060010154908060020154905083565b61108f61161c565b600073ffffffffffffffffffffffffffffffffffffffff168173ffffffffffffffffffffffffffffffffffffffff16036110fe576040517f08c379a00000000000000000000000000000000000000000000000000000000081526004016110f590612142565b60405180910390fd5b80600360006101000a81548173ffffffffffffffffffffffffffffffffffffffff021916908373ffffffffffffffffffffffffffffffffffffffff1602179055508073ffffffffffffffffffffffffffffffffffffffff167fe3162ce634ee4c6e39c868aa130f44228244e7469c577a852dd02e9fd9cb59c360405160405180910390a250565b60066020528060005260406000206000915054906101000a900460ff1681565b6111ad61161c565b600073ffffffffffffffffffffffffffffffffffffffff168173ffffffffffffffffffffffffffffffffffffffff160361121f5760006040517f1e4fbdf70000000000000000000000000000000000000000000000000000000081526004016112169190611ace565b60405180910390fd5b61122881611706565b50565b600360009054906101000a900473ffffffffffffffffffffffffffffffffffffffff1681565b611259610ad2565b73ffffffffffffffffffffffffffffffffffffffff163373ffffffffffffffffffffffffffffffffffffffff1614806112df5750600360009054906101000a900473ffffffffffffffffffffffffffffffffffffffff1673ffffffffffffffffffffffffffffffffffffffff163373ffffffffffffffffffffffffffffffffffffffff16145b61131e576040517f08c379a00000000000000000000000000000000000000000000000000000000081526004016113159061221a565b60405180910390fd5b60005b815181101561158857600082828151811061133f5761133e612349565b5b60200260200101519050600073ffffffffffffffffffffffffffffffffffffffff168173ffffffffffffffffffffffffffffffffffffffff16036113b8576040517f08c379a00000000000000000000000000000000000000000000000000000000081526004016113af906120d6565b60405180910390fd5b600660008273ffffffffffffffffffffffffffffffffffffffff1673ffffffffffffffffffffffffffffffffffffffff16815260200190815260200160002060009054906101000a900460ff1615611445576040517f08c379a000000000000000000000000000000000000000000000000000000000815260040161143c906123c4565b60405180910390fd5b60405180606001604052806004548152602001600081526020016000815250600560008373ffffffffffffffffffffffffffffffffffffffff1673ffffffffffffffffffffffffffffffffffffffff1681526020019081526020016000206000820151816000015560208201518160010155604082015181600201559050506001600660008373ffffffffffffffffffffffffffffffffffffffff1673ffffffffffffffffffffffffffffffffffffffff16815260200190815260200160002060006101000a81548160ff0219169083151502179055506004548173ffffffffffffffffffffffffffffffffffffffff167faf4da80e345398819d58f5ea80417035aa892535096c67610eea3c93bbf2ca3760405160405180910390a360046000815480929190611575906123e4565b9190505550508080600101915050611321565b5050565b6002600154036115c8576040517f3ee5aeb500000000000000000000000000000000000000000000000000000000815260040160405180910390fd5b6002600181905550565b6115da6108c9565b15611611576040517fd93c066500000000000000000000000000000000000000000000000000000000815260040160405180910390fd5b565b60018081905550565b61162461182d565b73ffffffffffffffffffffffffffffffffffffffff16611642610ad2565b73ffffffffffffffffffffffffffffffffffffffff16146116a15761166561182d565b6040517f118cdaa70000000000000000000000000000000000000000000000000000000081526004016116989190611ace565b60405180910390fd5b565b6116ab6115d2565b6001600260006101000a81548160ff0219169083151502179055507f62e78cea01bee320cd4e420270b5ea74000d11b0c9f74754ebdbfc544b05a2586116ef61182d565b6040516116fc9190611ace565b60405180910390a1565b60008060009054906101000a900473ffffffffffffffffffffffffffffffffffffffff169050816000806101000a81548173ffffffffffffffffffffffffffffffffffffffff021916908373ffffffffffffffffffffffffffffffffffffffff1602179055508173ffffffffffffffffffffffffffffffffffffffff168173ffffffffffffffffffffffffffffffffffffffff167f8be0079c531659141344cd1fd0a4f28419497f9722a3daafe3b4186f6b6457e060405160405180910390a35050565b6117d2611835565b6000600260006101000a81548160ff0219169083151502179055507f5db9ee0a495bf2e6ff9c91a7834c1ba4fdd244a5e8aa4e537bd38aeae4b073aa61181661182d565b6040516118239190611ace565b60405180910390a1565b600033905090565b61183d6108c9565b611873576040517f8dfc202b00000000000000000000000000000000000000000000000000000000815260040160405180910390fd5b565b6000604051905090565b600080fd5b600080fd5b6000819050919050565b61189c81611889565b81146118a757600080fd5b50565b6000813590506118b981611893565b92915050565b6000602082840312156118d5576118d461187f565b5b60006118e3848285016118aa565b91505092915050565b600073ffffffffffffffffffffffffffffffffffffffff82169050919050565b6000819050919050565b600061193161192c611927846118ec565b61190c565b6118ec565b9050919050565b600061194382611916565b9050919050565b600061195582611938565b9050919050565b6119658161194a565b82525050565b6000602082019050611980600083018461195c565b92915050565b6000611991826118ec565b9050919050565b6119a181611986565b81146119ac57600080fd5b50565b6000813590506119be81611998565b92915050565b6000602082840312156119da576119d961187f565b5b60006119e8848285016119af565b91505092915050565b60008115159050919050565b611a06816119f1565b82525050565b6000602082019050611a2160008301846119fd565b92915050565b611a3081611889565b82525050565b6000602082019050611a4b6000830184611a27565b92915050565b6000604082019050611a666000830185611a27565b611a736020830184611a27565b9392505050565b611a8381611986565b82525050565b6000608082019050611a9e6000830187611a27565b611aab6020830186611a7a565b611ab86040830185611a27565b611ac56060830184611a27565b95945050505050565b6000602082019050611ae36000830184611a7a565b92915050565b60008060408385031215611b0057611aff61187f565b5b6000611b0e858286016119af565b9250506020611b1f858286016118aa565b9150509250929050565b6000606082019050611b3e6000830186611a27565b611b4b6020830185611a27565b611b586040830184611a27565b949350505050565b600080fd5b6000601f19601f8301169050919050565b7f4e487b7100000000000000000000000000000000000000000000000000000000600052604160045260246000fd5b611bae82611b65565b810181811067ffffffffffffffff82111715611bcd57611bcc611b76565b5b80604052505050565b6000611be0611875565b9050611bec8282611ba5565b919050565b600067ffffffffffffffff821115611c0c57611c0b611b76565b5b602082029050602081019050919050565b600080fd5b6000611c35611c3084611bf1565b611bd6565b90508083825260208201905060208402830185811115611c5857611c57611c1d565b5b835b81811015611c815780611c6d88826119af565b845260208401935050602081019050611c5a565b5050509392505050565b600082601f830112611ca057611c9f611b60565b5b8135611cb0848260208601611c22565b91505092915050565b600060208284031215611ccf57611cce61187f565b5b600082013567ffffffffffffffff811115611ced57611cec611884565b5b611cf984828501611c8b565b91505092915050565b600082825260208201905092915050565b7f4e6f742061207465737465722e00000000000000000000000000000000000000600082015250565b6000611d49600d83611d02565b9150611d5482611d13565b602082019050919050565b60006020820190508181036000830152611d7881611d3c565b9050919050565b7f416d6f756e74206d757374206265203e20300000000000000000000000000000600082015250565b6000611db5601283611d02565b9150611dc082611d7f565b602082019050919050565b60006020820190508181036000830152611de481611da8565b9050919050565b7f4578636565647320756e636c61696d65642062616c616e636500000000000000600082015250565b6000611e21601983611d02565b9150611e2c82611deb565b602082019050919050565b60006020820190508181036000830152611e5081611e14565b9050919050565b600081519050611e6681611893565b92915050565b600060208284031215611e8257611e8161187f565b5b6000611e9084828501611e57565b91505092915050565b7f436f6e747261637420756e64657266756e646564000000000000000000000000600082015250565b6000611ecf601483611d02565b9150611eda82611e99565b602082019050919050565b60006020820190508181036000830152611efe81611ec2565b9050919050565b7f4e487b7100000000000000000000000000000000000000000000000000000000600052601160045260246000fd5b6000611f3f82611889565b9150611f4a83611889565b9250828203905081811115611f6257611f61611f05565b5b92915050565b6000611f7382611889565b9150611f7e83611889565b9250828201905080821115611f9657611f95611f05565b5b92915050565b6000604082019050611fb16000830185611a7a565b611fbe6020830184611a27565b9392505050565b611fce816119f1565b8114611fd957600080fd5b50565b600081519050611feb81611fc5565b92915050565b6000602082840312156120075761200661187f565b5b600061201584828501611fdc565b91505092915050565b7f5472616e73666572206661696c65640000000000000000000000000000000000600082015250565b6000612054600f83611d02565b915061205f8261201e565b602082019050919050565b6000602082019050818103600083015261208381612047565b9050919050565b7f496e76616c696420616464726573732e00000000000000000000000000000000600082015250565b60006120c0601083611d02565b91506120cb8261208a565b602082019050919050565b600060208201905081810360008301526120ef816120b3565b9050919050565b7f496e76616c696420616464726573730000000000000000000000000000000000600082015250565b600061212c600f83611d02565b9150612137826120f6565b602082019050919050565b6000602082019050818103600083015261215b8161211f565b9050919050565b7f5769746864726177206661696c65642e00000000000000000000000000000000600082015250565b6000612198601083611d02565b91506121a382612162565b602082019050919050565b600060208201905081810360008301526121c78161218b565b9050919050565b7f4e6f7420617574686f72697365642e0000000000000000000000000000000000600082015250565b6000612204600f83611d02565b915061220f826121ce565b602082019050919050565b60006020820190508181036000830152612233816121f7565b9050919050565b7f4e6f742061207465737465720000000000000000000000000000000000000000600082015250565b6000612270600c83611d02565b915061227b8261223a565b602082019050919050565b6000602082019050818103600083015261229f81612263565b9050919050565b60006060820190506122bb6000830186611a7a565b6122c86020830185611a7a565b6122d56040830184611a27565b949350505050565b7f5472616e73666572206661696c65642e00000000000000000000000000000000600082015250565b6000612313601083611d02565b915061231e826122dd565b602082019050919050565b6000602082019050818103600083015261234281612306565b9050919050565b7f4e487b7100000000000000000000000000000000000000000000000000000000600052603260045260246000fd5b7f416c72656164792061646465642e000000000000000000000000000000000000600082015250565b60006123ae600e83611d02565b91506123b982612378565b602082019050919050565b600060208201905081810360008301526123dd816123a1565b9050919050565b60006123ef82611889565b91507fffffffffffffffffffffffffffffffffffffffffffffffffffffffffffffffff820361242157612420611f05565b5b60018201905091905056fea264697066735822122032b8715987aa11f17ee3c3cff641317a5145298af91ffe1a82c056e1dd19f61164736f6c63430008180033",
  "linkReferences": {},
  "deployedLinkReferences": {}
}