{
  "_format": "hh-sol-artifact-1",
  "contractName": "EarnBase",
  "sourceName": "contracts/EarnBase.sol",
  "abi": [
    {
      "inputs": [],
      "stateMutability": "nonpayable",
      "type": "constructor"
    },
    {
      "inputs": [],
      "name": "EnforcedPause",
      "type": "error"
    },
    {
      "inputs": [],
      "name": "ExpectedPause",
      "type": "error"
    },
    {
      "inputs": [
        {
          "internalType": "address",
          "name": "owner",
          "type": "address"
        }
      ],
      "name": "OwnableInvalidOwner",
      "type": "error"
    },
    {
      "inputs": [
        {
          "internalType": "address",
          "name": "account",
          "type": "address"
        }
      ],
      "name": "OwnableUnauthorizedAccount",
      "type": "error"
    },
    {
      "inputs": [],
      "name": "ReentrancyGuardReentrantCall",
      "type": "error"
    },
    {
      "anonymous": false,
      "inputs": [
        {
          "indexed": true,
          "internalType": "address",
          "name": "agent",
          "type": "address"
        }
      ],
      "name": "AgentSet",
      "type": "event"
    },
    {
      "anonymous": false,
      "inputs": [
        {
          "indexed": true,
          "internalType": "address",
          "name": "to",
          "type": "address"
        },
        {
          "indexed": false,
          "internalType": "uint256",
          "name": "amount",
          "type": "uint256"
        },
        {
          "indexed": false,
          "internalType": "uint256",
          "name": "timestamp",
          "type": "uint256"
        }
      ],
      "name": "AmountSent",
      "type": "event"
    },
    {
      "anonymous": false,
      "inputs": [
        {
          "indexed": true,
          "internalType": "address",
          "name": "to",
          "type": "address"
        },
        {
          "indexed": false,
          "internalType": "uint256",
          "name": "amount",
          "type": "uint256"
        }
      ],
      "name": "AmountWithdrawn",
      "type": "event"
    },
    {
      "anonymous": false,
      "inputs": [
        {
          "indexed": true,
          "internalType": "address",
          "name": "depositor",
          "type": "address"
        },
        {
          "indexed": false,
          "internalType": "uint256",
          "name": "amount",
          "type": "uint256"
        }
      ],
      "name": "Deposited",
      "type": "event"
    },
    {
      "anonymous": false,
      "inputs": [
        {
          "indexed": true,
          "internalType": "address",
          "name": "previousOwner",
          "type": "address"
        },
        {
          "indexed": true,
          "internalType": "address",
          "name": "newOwner",
          "type": "address"
        }
      ],
      "name": "OwnershipTransferred",
      "type": "event"
    },
    {
      "anonymous": false,
      "inputs": [
        {
          "indexed": false,
          "internalType": "address",
          "name": "account",
          "type": "address"
        }
      ],
      "name": "Paused",
      "type": "event"
    },
    {
      "anonymous": false,
      "inputs": [
        {
          "indexed": false,
          "internalType": "address",
          "name": "testerAddress",
          "type": "address"
        },
        {
          "indexed": false,
          "internalType": "uint256",
          "name": "amount",
          "type": "uint256"
        },
        {
          "indexed": false,
          "internalType": "uint256",
          "name": "timestamp",
          "type": "uint256"
        }
      ],
      "name": "PaymentAwarded",
      "type": "event"
    },
    {
      "anonymous": false,
      "inputs": [
        {
          "indexed": true,
          "internalType": "address",
          "name": "tester",
          "type": "address"
        },
        {
          "indexed": false,
          "internalType": "uint256",
          "name": "amount",
          "type": "uint256"
        },
        {
          "indexed": false,
          "internalType": "uint256",
          "name": "totalClaimed",
          "type": "uint256"
        },
        {
          "indexed": false,
          "internalType": "uint256",
          "name": "totalUnclaimed",
          "type": "uint256"
        }
      ],
      "name": "RewardClaimed",
      "type": "event"
    },
    {
      "anonymous": false,
      "inputs": [
        {
          "indexed": true,
          "internalType": "address",
          "name": "tester",
          "type": "address"
        },
        {
          "indexed": false,
          "internalType": "uint256",
          "name": "amount",
          "type": "uint256"
        }
      ],
      "name": "RewardsAwarded",
      "type": "event"
    },
    {
      "anonymous": false,
      "inputs": [
        {
          "indexed": true,
          "internalType": "address",
          "name": "tester",
          "type": "address"
        },
        {
          "indexed": true,
          "internalType": "address",
          "name": "newSmartWallet",
          "type": "address"
        }
      ],
      "name": "SmartWalletUpdated",
      "type": "event"
    },
    {
      "anonymous": false,
      "inputs": [
        {
          "indexed": true,
          "internalType": "uint256",
          "name": "taskId",
          "type": "uint256"
        },
        {
          "indexed": true,
          "internalType": "address",
          "name": "creator",
          "type": "address"
        },
        {
          "indexed": false,
          "internalType": "uint256",
          "name": "totalAmount",
          "type": "uint256"
        },
        {
          "indexed": false,
          "internalType": "uint256",
          "name": "maxReward",
          "type": "uint256"
        }
      ],
      "name": "TaskCreated",
      "type": "event"
    },
    {
      "anonymous": false,
      "inputs": [
        {
          "indexed": true,
          "internalType": "address",
          "name": "tester",
          "type": "address"
        },
        {
          "indexed": true,
          "internalType": "uint256",
          "name": "testerId",
          "type": "uint256"
        }
      ],
      "name": "TesterAdded",
      "type": "event"
    },
    {
      "anonymous": false,
      "inputs": [
        {
          "indexed": false,
          "internalType": "address",
          "name": "account",
          "type": "address"
        }
      ],
      "name": "Unpaused",
      "type": "event"
    },
    {
      "inputs": [
        {
          "internalType": "address",
          "name": "_testerAddress",
          "type": "address"
        }
      ],
      "name": "addTester",
      "outputs": [],
      "stateMutability": "nonpayable",
      "type": "function"
    },
    {
      "inputs": [],
      "name": "agent",
      "outputs": [
        {
          "internalType": "address",
          "name": "",
          "type": "address"
        }
      ],
      "stateMutability": "view",
      "type": "function"
    },
    {
      "inputs": [],
      "name": "cUSDToken",
      "outputs": [
        {
          "internalType": "contract IERC20",
          "name": "",
          "type": "address"
        }
      ],
      "stateMutability": "view",
      "type": "function"
    },
    {
      "inputs": [
        {
          "internalType": "uint256",
          "name": "_taskId",
          "type": "uint256"
        }
      ],
      "name": "closeTask",
      "outputs": [],
      "stateMutability": "nonpayable",
      "type": "function"
    },
    {
      "inputs": [
        {
          "internalType": "uint256",
          "name": "_totalAmount",
          "type": "uint256"
        },
        {
          "internalType": "uint256",
          "name": "_maxReward",
          "type": "uint256"
        }
      ],
      "name": "createTask",
      "outputs": [],
      "stateMutability": "nonpayable",
      "type": "function"
    },
    {
      "inputs": [
        {
          "internalType": "uint256",
          "name": "amount",
          "type": "uint256"
        }
      ],
      "name": "depositCUSD",
      "outputs": [],
      "stateMutability": "nonpayable",
      "type": "function"
    },
    {
      "inputs": [
        {
          "internalType": "uint256",
          "name": "_taskId",
          "type": "uint256"
        },
        {
          "internalType": "uint256",
          "name": "amount",
          "type": "uint256"
        }
      ],
      "name": "depositForTask",
      "outputs": [],
      "stateMutability": "nonpayable",
      "type": "function"
    },
    {
      "inputs": [
        {
          "internalType": "address",
          "name": "to",
          "type": "address"
        },
        {
          "internalType": "uint256",
          "name": "amount",
          "type": "uint256"
        }
      ],
      "name": "emergencyWithdraw",
      "outputs": [],
      "stateMutability": "nonpayable",
      "type": "function"
    },
    {
      "inputs": [],
      "name": "getAllTesters",
      "outputs": [
        {
          "internalType": "address[]",
          "name": "",
          "type": "address[]"
        }
      ],
      "stateMutability": "view",
      "type": "function"
    },
    {
      "inputs": [
        {
          "internalType": "uint256",
          "name": "_taskId",
          "type": "uint256"
        }
      ],
      "name": "getTask",
      "outputs": [
        {
          "internalType": "uint256",
          "name": "id",
          "type": "uint256"
        },
        {
          "internalType": "address",
          "name": "creator",
          "type": "address"
        },
        {
          "internalType": "uint256",
          "name": "totalTestersCount",
          "type": "uint256"
        },
        {
          "internalType": "uint256",
          "name": "totalAmount",
          "type": "uint256"
        },
        {
          "internalType": "uint256",
          "name": "paidAmount",
          "type": "uint256"
        }
      ],
      "stateMutability": "view",
      "type": "function"
    },
    {
      "inputs": [
        {
          "internalType": "uint256",
          "name": "_taskId",
          "type": "uint256"
        }
      ],
      "name": "getTaskDetails",
      "outputs": [
        {
          "internalType": "uint256",
          "name": "id",
          "type": "uint256"
        },
        {
          "internalType": "address",
          "name": "creator",
          "type": "address"
        },
        {
          "internalType": "uint256",
          "name": "participantCount",
          "type": "uint256"
        },
        {
          "internalType": "uint256",
          "name": "totalAmount",
          "type": "uint256"
        },
        {
          "internalType": "uint256",
          "name": "paidAmount",
          "type": "uint256"
        },
        {
          "internalType": "address[]",
          "name": "participants",
          "type": "address[]"
        },
        {
          "internalType": "uint256[]",
          "name": "participantAmounts",
          "type": "uint256[]"
        }
      ],
      "stateMutability": "view",
      "type": "function"
    },
    {
      "inputs": [
        {
          "internalType": "uint256",
          "name": "_taskId",
          "type": "uint256"
        }
      ],
      "name": "getTaskParticipants",
      "outputs": [
        {
          "internalType": "address[]",
          "name": "participantAddresses",
          "type": "address[]"
        },
        {
          "internalType": "uint256[]",
          "name": "participantAmounts",
          "type": "uint256[]"
        }
      ],
      "stateMutability": "view",
      "type": "function"
    },
    {
      "inputs": [
        {
          "internalType": "uint256",
          "name": "_taskId",
          "type": "uint256"
        }
      ],
      "name": "getTaskPayments",
      "outputs": [
        {
          "components": [
            {
              "internalType": "uint256",
              "name": "id",
              "type": "uint256"
            },
            {
              "internalType": "uint256",
              "name": "taskId",
              "type": "uint256"
            },
            {
              "internalType": "address",
              "name": "receiver",
              "type": "address"
            },
            {
              "internalType": "uint256",
              "name": "amount",
              "type": "uint256"
            },
            {
              "internalType": "uint256",
              "name": "timestamp",
              "type": "uint256"
            }
          ],
          "internalType": "struct EarnBase.Payment[]",
          "name": "",
          "type": "tuple[]"
        }
      ],
      "stateMutability": "view",
      "type": "function"
    },
    {
      "inputs": [
        {
          "internalType": "uint256",
          "name": "_taskId",
          "type": "uint256"
        }
      ],
      "name": "getTaskStats",
      "outputs": [
        {
          "internalType": "uint256",
          "name": "totalAmount",
          "type": "uint256"
        },
        {
          "internalType": "uint256",
          "name": "paidAmount",
          "type": "uint256"
        },
        {
          "internalType": "uint256",
          "name": "remainingAmount",
          "type": "uint256"
        },
        {
          "internalType": "uint256",
          "name": "paymentCount",
          "type": "uint256"
        }
      ],
      "stateMutability": "view",
      "type": "function"
    },
    {
      "inputs": [
        {
          "internalType": "address",
          "name": "_testerAddress",
          "type": "address"
        }
      ],
      "name": "getTesterInfo",
      "outputs": [
        {
          "internalType": "uint256",
          "name": "id",
          "type": "uint256"
        },
        {
          "internalType": "uint256[]",
          "name": "taskIds",
          "type": "uint256[]"
        },
        {
          "internalType": "address",
          "name": "smartAddress",
          "type": "address"
        },
        {
          "internalType": "address",
          "name": "normalAddress",
          "type": "address"
        },
        {
          "internalType": "uint256",
          "name": "totalEarned",
          "type": "uint256"
        }
      ],
      "stateMutability": "view",
      "type": "function"
    },
    {
      "inputs": [
        {
          "internalType": "address",
          "name": "_testerAddress",
          "type": "address"
        }
      ],
      "name": "getTesterPayments",
      "outputs": [
        {
          "components": [
            {
              "internalType": "uint256",
              "name": "id",
              "type": "uint256"
            },
            {
              "internalType": "uint256",
              "name": "taskId",
              "type": "uint256"
            },
            {
              "internalType": "address",
              "name": "receiver",
              "type": "address"
            },
            {
              "internalType": "uint256",
              "name": "amount",
              "type": "uint256"
            },
            {
              "internalType": "uint256",
              "name": "timestamp",
              "type": "uint256"
            }
          ],
          "internalType": "struct EarnBase.Payment[]",
          "name": "",
          "type": "tuple[]"
        }
      ],
      "stateMutability": "view",
      "type": "function"
    },
    {
      "inputs": [
        {
          "internalType": "address",
          "name": "_testerAddress",
          "type": "address"
        },
        {
          "internalType": "uint256",
          "name": "_taskId",
          "type": "uint256"
        }
      ],
      "name": "getTesterTaskEarnings",
      "outputs": [
        {
          "internalType": "uint256",
          "name": "",
          "type": "uint256"
        }
      ],
      "stateMutability": "view",
      "type": "function"
    },
    {
      "inputs": [],
      "name": "getTotalTasks",
      "outputs": [
        {
          "internalType": "uint256",
          "name": "",
          "type": "uint256"
        }
      ],
      "stateMutability": "view",
      "type": "function"
    },
    {
      "inputs": [
        {
          "internalType": "address",
          "name": "",
          "type": "address"
        }
      ],
      "name": "isTester",
      "outputs": [
        {
          "internalType": "bool",
          "name": "",
          "type": "bool"
        }
      ],
      "stateMutability": "view",
      "type": "function"
    },
    {
      "inputs": [
        {
          "internalType": "address",
          "name": "_testerAddress",
          "type": "address"
        },
        {
          "internalType": "uint256",
          "name": "_amount",
          "type": "uint256"
        },
        {
          "internalType": "uint256",
          "name": "_taskId",
          "type": "uint256"
        }
      ],
      "name": "makePayment",
      "outputs": [],
      "stateMutability": "nonpayable",
      "type": "function"
    },
    {
      "inputs": [],
      "name": "owner",
      "outputs": [
        {
          "internalType": "address",
          "name": "",
          "type": "address"
        }
      ],
      "stateMutability": "view",
      "type": "function"
    },
    {
      "inputs": [],
      "name": "pauseContract",
      "outputs": [],
      "stateMutability": "nonpayable",
      "type": "function"
    },
    {
      "inputs": [],
      "name": "paused",
      "outputs": [
        {
          "internalType": "bool",
          "name": "",
          "type": "bool"
        }
      ],
      "stateMutability": "view",
      "type": "function"
    },
    {
      "inputs": [
        {
          "internalType": "uint256",
          "name": "",
          "type": "uint256"
        }
      ],
      "name": "payments",
      "outputs": [
        {
          "internalType": "uint256",
          "name": "id",
          "type": "uint256"
        },
        {
          "internalType": "uint256",
          "name": "taskId",
          "type": "uint256"
        },
        {
          "internalType": "address",
          "name": "receiver",
          "type": "address"
        },
        {
          "internalType": "uint256",
          "name": "amount",
          "type": "uint256"
        },
        {
          "internalType": "uint256",
          "name": "timestamp",
          "type": "uint256"
        }
      ],
      "stateMutability": "view",
      "type": "function"
    },
    {
      "inputs": [],
      "name": "renounceOwnership",
      "outputs": [],
      "stateMutability": "nonpayable",
      "type": "function"
    },
    {
      "inputs": [
        {
          "internalType": "address",
          "name": "_agent",
          "type": "address"
        }
      ],
      "name": "setAgent",
      "outputs": [],
      "stateMutability": "nonpayable",
      "type": "function"
    },
    {
      "inputs": [
        {
          "internalType": "uint256",
          "name": "",
          "type": "uint256"
        }
      ],
      "name": "tasks",
      "outputs": [
        {
          "internalType": "uint256",
          "name": "id",
          "type": "uint256"
        },
        {
          "internalType": "address",
          "name": "creator",
          "type": "address"
        },
        {
          "internalType": "uint256",
          "name": "totalTesters",
          "type": "uint256"
        },
        {
          "internalType": "uint256",
          "name": "totalAmount",
          "type": "uint256"
        },
        {
          "internalType": "uint256",
          "name": "paidAmount",
          "type": "uint256"
        }
      ],
      "stateMutability": "view",
      "type": "function"
    },
    {
      "inputs": [
        {
          "internalType": "uint256",
          "name": "",
          "type": "uint256"
        }
      ],
      "name": "testerAddresses",
      "outputs": [
        {
          "internalType": "address",
          "name": "",
          "type": "address"
        }
      ],
      "stateMutability": "view",
      "type": "function"
    },
    {
      "inputs": [
        {
          "internalType": "address",
          "name": "",
          "type": "address"
        }
      ],
      "name": "testers",
      "outputs": [
        {
          "internalType": "uint256",
          "name": "id",
          "type": "uint256"
        },
        {
          "internalType": "address",
          "name": "smartAddress",
          "type": "address"
        },
        {
          "internalType": "address",
          "name": "normalAddress",
          "type": "address"
        },
        {
          "internalType": "uint256",
          "name": "totalEarned",
          "type": "uint256"
        }
      ],
      "stateMutability": "view",
      "type": "function"
    },
    {
      "inputs": [],
      "name": "totalTasks",
      "outputs": [
        {
          "internalType": "uint256",
          "name": "",
          "type": "uint256"
        }
      ],
      "stateMutability": "view",
      "type": "function"
    },
    {
      "inputs": [],
      "name": "totalTesters",
      "outputs": [
        {
          "internalType": "uint256",
          "name": "",
          "type": "uint256"
        }
      ],
      "stateMutability": "view",
      "type": "function"
    },
    {
      "inputs": [
        {
          "internalType": "address",
          "name": "newOwner",
          "type": "address"
        }
      ],
      "name": "transferOwnership",
      "outputs": [],
      "stateMutability": "nonpayable",
      "type": "function"
    },
    {
      "inputs": [],
      "name": "unpauseContract",
      "outputs": [],
      "stateMutability": "nonpayable",
      "type": "function"
    },
    {
      "inputs": [
        {
          "internalType": "address",
          "name": "_smartWallet",
          "type": "address"
        },
        {
          "internalType": "address",
          "name": "_normalAddress",
          "type": "address"
        }
      ],
      "name": "updateSmartWallet",
      "outputs": [],
      "stateMutability": "nonpayable",
      "type": "function"
    }
  ],
  "bytecode": "0x60806040523480156200001157600080fd5b5033600073ffffffffffffffffffffffffffffffffffffffff168173ffffffffffffffffffffffffffffffffffffffff1603620000885760006040517f1e4fbdf70000000000000000000000000000000000000000000000000000000081526004016200007f91906200025a565b60405180910390fd5b62000099816200015160201b60201c565b506001808190555073765de816845861e75a25fca122bb6898b8b1282a600260016101000a81548173ffffffffffffffffffffffffffffffffffffffff021916908373ffffffffffffffffffffffffffffffffffffffff160217905550731c059486b99d6a2d9372827b70084fbfd014e978600360006101000a81548173ffffffffffffffffffffffffffffffffffffffff021916908373ffffffffffffffffffffffffffffffffffffffff16021790555062000277565b60008060009054906101000a900473ffffffffffffffffffffffffffffffffffffffff169050816000806101000a81548173ffffffffffffffffffffffffffffffffffffffff021916908373ffffffffffffffffffffffffffffffffffffffff1602179055508173ffffffffffffffffffffffffffffffffffffffff168173ffffffffffffffffffffffffffffffffffffffff167f8be0079c531659141344cd1fd0a4f28419497f9722a3daafe3b4186f6b6457e060405160405180910390a35050565b600073ffffffffffffffffffffffffffffffffffffffff82169050919050565b6000620002428262000215565b9050919050565b620002548162000235565b82525050565b600060208201905062000271600083018462000249565b92915050565b614e6a80620002876000396000f3fe608060405234801561001057600080fd5b50600436106102065760003560e01c80638d9776721161011a578063bcb2fb2d116100ad578063d32310c41161007c578063d32310c414610605578063dd54f83414610638578063e75b237814610668578063f2fde38b14610684578063f5ff5c76146106a057610206565b8063bcb2fb2d14610568578063bcf685ed1461059b578063bd630dc7146105b7578063d22c81e5146105e757610206565b8063adbd886d116100e9578063adbd886d146104e2578063b33712c514610512578063bb2a96ff1461051c578063bc6fd71c1461053857610206565b80638d977672146104585780638da5cb5b1461048c57806392b30058146104aa57806395ccea67146104c657610206565b806347810fe31161019d5780635ac94d1f1161016c5780635ac94d1f146103ad5780635c975abb146103cb578063715018a6146103e95780637869099c146103f357806387d817891461042457610206565b806347810fe3146103275780634c6705e81461034357806350f00c5e1461036157806352c423101461039157610206565b80633888b9d5116101d95780633888b9d5146102ad5780633c93b905146102e3578063439766ce146103015780634748d5e41461030b57610206565b806301c0f8ed1461020b5780630ea86ad81461023f5780631201dfc61461025d5780631d65e77e14610279575b600080fd5b6102256004803603810190610220919061391f565b6106be565b604051610236959493929190613a32565b60405180910390f35b610247610854565b6040516102549190613aeb565b60405180910390f35b61027760048036038101906102729190613b32565b61087a565b005b610293600480360381019061028e9190613b32565b610b7c565b6040516102a4959493929190613b5f565b60405180910390f35b6102c760048036038101906102c29190613b32565b610c3e565b6040516102da9796959493929190613c70565b60405180910390f35b6102eb610ef8565b6040516102f89190613ced565b60405180910390f35b610309610f02565b005b61032560048036038101906103209190613d08565b610f14565b005b610341600480360381019061033c919061391f565b61136d565b005b61034b6117f2565b6040516103589190613ced565b60405180910390f35b61037b60048036038101906103769190613b32565b6117f8565b6040516103889190613e72565b60405180910390f35b6103ab60048036038101906103a69190613e94565b611a21565b005b6103b5611cc0565b6040516103c29190613ed4565b60405180910390f35b6103d3611d4e565b6040516103e09190613f11565b60405180910390f35b6103f1611d65565b005b61040d60048036038101906104089190613b32565b611d79565b60405161041b929190613f2c565b60405180910390f35b61043e60048036038101906104399190613b32565b611fe6565b60405161044f959493929190613f63565b60405180910390f35b610472600480360381019061046d9190613b32565b61204c565b604051610483959493929190613b5f565b60405180910390f35b6104946120b2565b6040516104a19190613fb6565b60405180910390f35b6104c460048036038101906104bf9190613fd1565b6120db565b005b6104e060048036038101906104db9190614011565b6123f1565b005b6104fc60048036038101906104f79190613b32565b612599565b6040516105099190613fb6565b60405180910390f35b61051a6125d8565b005b61053660048036038101906105319190613b32565b6125ea565b005b610552600480360381019061054d919061391f565b61276d565b60405161055f9190613e72565b60405180910390f35b610582600480360381019061057d919061391f565b612a73565b6040516105929493929190614051565b60405180910390f35b6105b560048036038101906105b0919061391f565b612ae3565b005b6105d160048036038101906105cc919061391f565b612be1565b6040516105de9190613f11565b60405180910390f35b6105ef612c01565b6040516105fc9190613ced565b60405180910390f35b61061f600480360381019061061a9190613b32565b612c07565b60405161062f9493929190614096565b60405180910390f35b610652600480360381019061064d9190614011565b612d04565b60405161065f9190613ced565b60405180910390f35b610682600480360381019061067d9190613e94565b612e35565b005b61069e6004803603810190610699919061391f565b613113565b005b6106a8613199565b6040516106b59190613fb6565b60405180910390f35b600060606000806000600960008773ffffffffffffffffffffffffffffffffffffffff1673ffffffffffffffffffffffffffffffffffffffff16815260200190815260200160002060009054906101000a900460ff16610753576040517f08c379a000000000000000000000000000000000000000000000000000000000815260040161074a90614138565b60405180910390fd5b6000600860008873ffffffffffffffffffffffffffffffffffffffff1673ffffffffffffffffffffffffffffffffffffffff16815260200190815260200160002090508060000154816001018260020160009054906101000a900473ffffffffffffffffffffffffffffffffffffffff168360030160009054906101000a900473ffffffffffffffffffffffffffffffffffffffff1684600401548380548060200260200160405190810160405280929190818152602001828054801561083957602002820191906000526020600020905b815481526020019060010190808311610825575b50505050509350955095509550955095505091939590929450565b600260019054906101000a900473ffffffffffffffffffffffffffffffffffffffff1681565b6108826131bf565b60078054905081106108c9576040517f08c379a00000000000000000000000000000000000000000000000000000000081526004016108c0906141a4565b60405180910390fd5b6000600782815481106108df576108de6141c4565b5b906000526020600020906007020190508060010160009054906101000a900473ffffffffffffffffffffffffffffffffffffffff1673ffffffffffffffffffffffffffffffffffffffff163373ffffffffffffffffffffffffffffffffffffffff1614610981576040517f08c379a00000000000000000000000000000000000000000000000000000000081526004016109789061423f565b60405180910390fd5b8060030154816004015411156109cc576040517f08c379a00000000000000000000000000000000000000000000000000000000081526004016109c3906142ab565b60405180910390fd5b6000816004015482600301546109e291906142fa565b90506000811115610af7576000600260019054906101000a900473ffffffffffffffffffffffffffffffffffffffff1673ffffffffffffffffffffffffffffffffffffffff1663a9059cbb8460010160009054906101000a900473ffffffffffffffffffffffffffffffffffffffff16846040518363ffffffff1660e01b8152600401610a7092919061432e565b6020604051808303816000875af1158015610a8f573d6000803e3d6000fd5b505050506040513d601f19601f82011682018060405250810190610ab39190614383565b905080610af5576040517f08c379a0000000000000000000000000000000000000000000000000000000008152600401610aec906143fc565b60405180910390fd5b505b600082600301819055508160010160009054906101000a900473ffffffffffffffffffffffffffffffffffffffff1673ffffffffffffffffffffffffffffffffffffffff16837ff5ac772f880dc6ed6b50db24e062bbc51818e270ed47533fd9162e5255fa2913600080604051610b6f929190614457565b60405180910390a3505050565b60008060008060006007805490508610610bcb576040517f08c379a0000000000000000000000000000000000000000000000000000000008152600401610bc2906141a4565b60405180910390fd5b600060078781548110610be157610be06141c4565b5b9060005260206000209060070201905080600001548160010160009054906101000a900473ffffffffffffffffffffffffffffffffffffffff16826002015483600301548460040154955095509550955095505091939590929450565b60008060008060006060806007805490508810610c90576040517f08c379a0000000000000000000000000000000000000000000000000000000008152600401610c87906141a4565b60405180910390fd5b600060078981548110610ca657610ca56141c4565b5b9060005260206000209060070201905060008160050180549050905060008167ffffffffffffffff811115610cde57610cdd614480565b5b604051908082528060200260200182016040528015610d0c5781602001602082028036833780820191505090505b50905060008267ffffffffffffffff811115610d2b57610d2a614480565b5b604051908082528060200260200182016040528015610d595781602001602082028036833780820191505090505b50905060005b83811015610ea357846005018181548110610d7d57610d7c6141c4565b5b9060005260206000200160009054906101000a900473ffffffffffffffffffffffffffffffffffffffff16838281518110610dbb57610dba6141c4565b5b602002602001019073ffffffffffffffffffffffffffffffffffffffff16908173ffffffffffffffffffffffffffffffffffffffff1681525050846006016000866005018381548110610e1157610e106141c4565b5b9060005260206000200160009054906101000a900473ffffffffffffffffffffffffffffffffffffffff1673ffffffffffffffffffffffffffffffffffffffff1673ffffffffffffffffffffffffffffffffffffffff16815260200190815260200160002054828281518110610e8a57610e896141c4565b5b6020026020010181815250508080600101915050610d5f565b5083600001548460010160009054906101000a900473ffffffffffffffffffffffffffffffffffffffff16848660030154876004015486869a509a509a509a509a509a509a5050505050919395979092949650565b6000600554905090565b610f0a613200565b610f12613287565b565b610f1c6131bf565b610f246120b2565b73ffffffffffffffffffffffffffffffffffffffff163373ffffffffffffffffffffffffffffffffffffffff161480610faa5750600360009054906101000a900473ffffffffffffffffffffffffffffffffffffffff1673ffffffffffffffffffffffffffffffffffffffff163373ffffffffffffffffffffffffffffffffffffffff16145b610fe9576040517f08c379a0000000000000000000000000000000000000000000000000000000008152600401610fe0906144fb565b60405180910390fd5b600073ffffffffffffffffffffffffffffffffffffffff168373ffffffffffffffffffffffffffffffffffffffff1603611058576040517f08c379a000000000000000000000000000000000000000000000000000000000815260040161104f90614567565b60405180910390fd5b6000821161109b576040517f08c379a0000000000000000000000000000000000000000000000000000000008152600401611092906145d3565b60405180910390fd5b60078054905081106110e2576040517f08c379a00000000000000000000000000000000000000000000000000000000081526004016110d9906141a4565b60405180910390fd5b81600260019054906101000a900473ffffffffffffffffffffffffffffffffffffffff1673ffffffffffffffffffffffffffffffffffffffff166370a08231306040518263ffffffff1660e01b815260040161113e9190613fb6565b602060405180830381865afa15801561115b573d6000803e3d6000fd5b505050506040513d601f19601f8201168201806040525081019061117f9190614608565b10156111c0576040517f08c379a00000000000000000000000000000000000000000000000000000000081526004016111b7906146a7565b60405180910390fd5b6000600782815481106111d6576111d56141c4565b5b9060005260206000209060070201905080600301548382600401546111fb91906146c7565b111561123c576040517f08c379a000000000000000000000000000000000000000000000000000000000815260040161123390614747565b60405180910390fd5b6000600260019054906101000a900473ffffffffffffffffffffffffffffffffffffffff1673ffffffffffffffffffffffffffffffffffffffff1663a9059cbb86866040518363ffffffff1660e01b815260040161129b92919061432e565b6020604051808303816000875af11580156112ba573d6000803e3d6000fd5b505050506040513d601f19601f820116820180604052508101906112de9190614383565b905080611320576040517f08c379a0000000000000000000000000000000000000000000000000000000008152600401611317906147b3565b60405180910390fd5b61132b8585856132ea565b7fb197749b82e7a16f2470045c7cf2e8be862f37c5e6abffadbf06da6a970a893185854260405161135e939291906147d3565b60405180910390a15050505050565b6113756120b2565b73ffffffffffffffffffffffffffffffffffffffff163373ffffffffffffffffffffffffffffffffffffffff1614806113fb5750600360009054906101000a900473ffffffffffffffffffffffffffffffffffffffff1673ffffffffffffffffffffffffffffffffffffffff163373ffffffffffffffffffffffffffffffffffffffff16145b61143a576040517f08c379a0000000000000000000000000000000000000000000000000000000008152600401611431906144fb565b60405180910390fd5b600073ffffffffffffffffffffffffffffffffffffffff168173ffffffffffffffffffffffffffffffffffffffff16036114a9576040517f08c379a00000000000000000000000000000000000000000000000000000000081526004016114a090614856565b60405180910390fd5b600960008273ffffffffffffffffffffffffffffffffffffffff1673ffffffffffffffffffffffffffffffffffffffff16815260200190815260200160002060009054906101000a900460ff1615611536576040517f08c379a000000000000000000000000000000000000000000000000000000000815260040161152d906148c2565b60405180910390fd5b600454600860008373ffffffffffffffffffffffffffffffffffffffff1673ffffffffffffffffffffffffffffffffffffffff168152602001908152602001600020600001819055506000600860008373ffffffffffffffffffffffffffffffffffffffff1673ffffffffffffffffffffffffffffffffffffffff16815260200190815260200160002060020160006101000a81548173ffffffffffffffffffffffffffffffffffffffff021916908373ffffffffffffffffffffffffffffffffffffffff16021790555080600860008373ffffffffffffffffffffffffffffffffffffffff1673ffffffffffffffffffffffffffffffffffffffff16815260200190815260200160002060030160006101000a81548173ffffffffffffffffffffffffffffffffffffffff021916908373ffffffffffffffffffffffffffffffffffffffff1602179055506000600860008373ffffffffffffffffffffffffffffffffffffffff1673ffffffffffffffffffffffffffffffffffffffff168152602001908152602001600020600401819055506001600960008373ffffffffffffffffffffffffffffffffffffffff1673ffffffffffffffffffffffffffffffffffffffff16815260200190815260200160002060006101000a81548160ff021916908315150217905550600a819080600181540180825580915050600190039060005260206000200160009091909190916101000a81548173ffffffffffffffffffffffffffffffffffffffff021916908373ffffffffffffffffffffffffffffffffffffffff16021790555060046000815480929190611798906148e2565b919050555060016004546117ac91906142fa565b8173ffffffffffffffffffffffffffffffffffffffff167faf4da80e345398819d58f5ea80417035aa892535096c67610eea3c93bbf2ca3760405160405180910390a350565b60045481565b60606007805490508210611841576040517f08c379a0000000000000000000000000000000000000000000000000000000008152600401611838906141a4565b60405180910390fd5b6000805b60068054905081101561189a578360068281548110611867576118666141c4565b5b9060005260206000209060050201600101540361188d578180611889906148e2565b9250505b8080600101915050611845565b5060008167ffffffffffffffff8111156118b7576118b6614480565b5b6040519080825280602002602001820160405280156118f057816020015b6118dd613877565b8152602001906001900390816118d55790505b5090506000805b600680549050811015611a15578560068281548110611919576119186141c4565b5b90600052602060002090600502016001015403611a085760068181548110611944576119436141c4565b5b90600052602060002090600502016040518060a001604052908160008201548152602001600182015481526020016002820160009054906101000a900473ffffffffffffffffffffffffffffffffffffffff1673ffffffffffffffffffffffffffffffffffffffff1673ffffffffffffffffffffffffffffffffffffffff168152602001600382015481526020016004820154815250508383815181106119ee576119ed6141c4565b5b60200260200101819052508180611a04906148e2565b9250505b80806001019150506118f7565b50819350505050919050565b611a296131bf565b6007805490508210611a70576040517f08c379a0000000000000000000000000000000000000000000000000000000008152600401611a67906141a4565b60405180910390fd5b60008111611ab3576040517f08c379a0000000000000000000000000000000000000000000000000000000008152600401611aaa906145d3565b60405180910390fd5b600060078381548110611ac957611ac86141c4565b5b906000526020600020906007020190508060010160009054906101000a900473ffffffffffffffffffffffffffffffffffffffff1673ffffffffffffffffffffffffffffffffffffffff163373ffffffffffffffffffffffffffffffffffffffff1614611b6b576040517f08c379a0000000000000000000000000000000000000000000000000000000008152600401611b6290614976565b60405180910390fd5b6000600260019054906101000a900473ffffffffffffffffffffffffffffffffffffffff1673ffffffffffffffffffffffffffffffffffffffff166323b872dd3330866040518463ffffffff1660e01b8152600401611bcc93929190614996565b6020604051808303816000875af1158015611beb573d6000803e3d6000fd5b505050506040513d601f19601f82011682018060405250810190611c0f9190614383565b905080611c51576040517f08c379a0000000000000000000000000000000000000000000000000000000008152600401611c4890614a19565b60405180910390fd5b82826003016000828254611c6591906146c7565b925050819055503373ffffffffffffffffffffffffffffffffffffffff167f2da466a7b24304f47e87fa2e1e5a81b9831ce54fec19055ce277ca2f39ba42c484604051611cb29190613ced565b60405180910390a250505050565b6060600a805480602002602001604051908101604052809291908181526020018280548015611d4457602002820191906000526020600020905b8160009054906101000a900473ffffffffffffffffffffffffffffffffffffffff1673ffffffffffffffffffffffffffffffffffffffff1681526020019060010190808311611cfa575b5050505050905090565b6000600260009054906101000a900460ff16905090565b611d6d613200565b611d776000613708565b565b6060806007805490508310611dc3576040517f08c379a0000000000000000000000000000000000000000000000000000000008152600401611dba906141a4565b60405180910390fd5b600060078481548110611dd957611dd86141c4565b5b9060005260206000209060070201905060008160050180549050905060008167ffffffffffffffff811115611e1157611e10614480565b5b604051908082528060200260200182016040528015611e3f5781602001602082028036833780820191505090505b50905060008267ffffffffffffffff811115611e5e57611e5d614480565b5b604051908082528060200260200182016040528015611e8c5781602001602082028036833780820191505090505b50905060005b83811015611fd657846005018181548110611eb057611eaf6141c4565b5b9060005260206000200160009054906101000a900473ffffffffffffffffffffffffffffffffffffffff16838281518110611eee57611eed6141c4565b5b602002602001019073ffffffffffffffffffffffffffffffffffffffff16908173ffffffffffffffffffffffffffffffffffffffff1681525050846006016000866005018381548110611f4457611f436141c4565b5b9060005260206000200160009054906101000a900473ffffffffffffffffffffffffffffffffffffffff1673ffffffffffffffffffffffffffffffffffffffff1673ffffffffffffffffffffffffffffffffffffffff16815260200190815260200160002054828281518110611fbd57611fbc6141c4565b5b6020026020010181815250508080600101915050611e92565b5081819550955050505050915091565b60068181548110611ff657600080fd5b90600052602060002090600502016000915090508060000154908060010154908060020160009054906101000a900473ffffffffffffffffffffffffffffffffffffffff16908060030154908060040154905085565b6007818154811061205c57600080fd5b90600052602060002090600702016000915090508060000154908060010160009054906101000a900473ffffffffffffffffffffffffffffffffffffffff16908060020154908060030154908060040154905085565b60008060009054906101000a900473ffffffffffffffffffffffffffffffffffffffff16905090565b6120e36120b2565b73ffffffffffffffffffffffffffffffffffffffff163373ffffffffffffffffffffffffffffffffffffffff1614806121695750600360009054906101000a900473ffffffffffffffffffffffffffffffffffffffff1673ffffffffffffffffffffffffffffffffffffffff163373ffffffffffffffffffffffffffffffffffffffff16145b6121a8576040517f08c379a000000000000000000000000000000000000000000000000000000000815260040161219f906144fb565b60405180910390fd5b600073ffffffffffffffffffffffffffffffffffffffff168273ffffffffffffffffffffffffffffffffffffffff1603612217576040517f08c379a000000000000000000000000000000000000000000000000000000000815260040161220e90614a85565b60405180910390fd5b600073ffffffffffffffffffffffffffffffffffffffff168173ffffffffffffffffffffffffffffffffffffffff1603612286576040517f08c379a000000000000000000000000000000000000000000000000000000000815260040161227d90614af1565b60405180910390fd5b600960008273ffffffffffffffffffffffffffffffffffffffff1673ffffffffffffffffffffffffffffffffffffffff16815260200190815260200160002060009054906101000a900460ff16612312576040517f08c379a000000000000000000000000000000000000000000000000000000000815260040161230990614138565b60405180910390fd5b81600860008373ffffffffffffffffffffffffffffffffffffffff1673ffffffffffffffffffffffffffffffffffffffff16815260200190815260200160002060020160006101000a81548173ffffffffffffffffffffffffffffffffffffffff021916908373ffffffffffffffffffffffffffffffffffffffff1602179055508173ffffffffffffffffffffffffffffffffffffffff168173ffffffffffffffffffffffffffffffffffffffff167ff7b9883f256cf768ad054d3cfc455603983f3e2d2635d9dbe1a7f6f6546ca83a60405160405180910390a35050565b6123f9613200565b600073ffffffffffffffffffffffffffffffffffffffff168273ffffffffffffffffffffffffffffffffffffffff1603612468576040517f08c379a000000000000000000000000000000000000000000000000000000000815260040161245f90614856565b60405180910390fd5b600260019054906101000a900473ffffffffffffffffffffffffffffffffffffffff1673ffffffffffffffffffffffffffffffffffffffff1663a9059cbb83836040518363ffffffff1660e01b81526004016124c592919061432e565b6020604051808303816000875af11580156124e4573d6000803e3d6000fd5b505050506040513d601f19601f820116820180604052508101906125089190614383565b612547576040517f08c379a000000000000000000000000000000000000000000000000000000000815260040161253e90614b5d565b60405180910390fd5b8173ffffffffffffffffffffffffffffffffffffffff167f058b581e2433b8b02263f5b0e5c2889fcb7b3495112884a3147619038fba46d88260405161258d9190613ced565b60405180910390a25050565b600a81815481106125a957600080fd5b906000526020600020016000915054906101000a900473ffffffffffffffffffffffffffffffffffffffff1681565b6125e0613200565b6125e86137cc565b565b6125f26131bf565b60008111612635576040517f08c379a000000000000000000000000000000000000000000000000000000000815260040161262c90614bc9565b60405180910390fd5b6000600260019054906101000a900473ffffffffffffffffffffffffffffffffffffffff1673ffffffffffffffffffffffffffffffffffffffff166323b872dd3330856040518463ffffffff1660e01b815260040161269693929190614996565b6020604051808303816000875af11580156126b5573d6000803e3d6000fd5b505050506040513d601f19601f820116820180604052508101906126d99190614383565b90508061271b576040517f08c379a000000000000000000000000000000000000000000000000000000000815260040161271290614c35565b60405180910390fd5b3373ffffffffffffffffffffffffffffffffffffffff167f2da466a7b24304f47e87fa2e1e5a81b9831ce54fec19055ce277ca2f39ba42c4836040516127619190613ced565b60405180910390a25050565b6060600960008373ffffffffffffffffffffffffffffffffffffffff1673ffffffffffffffffffffffffffffffffffffffff16815260200190815260200160002060009054906101000a900460ff166127fb576040517f08c379a00000000000000000000000000000000000000000000000000000000081526004016127f290614138565b60405180910390fd5b6000805b6006805490508110156128a0578373ffffffffffffffffffffffffffffffffffffffff1660068281548110612837576128366141c4565b5b906000526020600020906005020160020160009054906101000a900473ffffffffffffffffffffffffffffffffffffffff1673ffffffffffffffffffffffffffffffffffffffff160361289357818061288f906148e2565b9250505b80806001019150506127ff565b5060008167ffffffffffffffff8111156128bd576128bc614480565b5b6040519080825280602002602001820160405280156128f657816020015b6128e3613877565b8152602001906001900390816128db5790505b5090506000805b600680549050811015612a67578573ffffffffffffffffffffffffffffffffffffffff1660068281548110612935576129346141c4565b5b906000526020600020906005020160020160009054906101000a900473ffffffffffffffffffffffffffffffffffffffff1673ffffffffffffffffffffffffffffffffffffffff1603612a5a5760068181548110612996576129956141c4565b5b90600052602060002090600502016040518060a001604052908160008201548152602001600182015481526020016002820160009054906101000a900473ffffffffffffffffffffffffffffffffffffffff1673ffffffffffffffffffffffffffffffffffffffff1673ffffffffffffffffffffffffffffffffffffffff16815260200160038201548152602001600482015481525050838381518110612a4057612a3f6141c4565b5b60200260200101819052508180612a56906148e2565b9250505b80806001019150506128fd565b50819350505050919050565b60086020528060005260406000206000915090508060000154908060020160009054906101000a900473ffffffffffffffffffffffffffffffffffffffff16908060030160009054906101000a900473ffffffffffffffffffffffffffffffffffffffff16908060040154905084565b612aeb613200565b600073ffffffffffffffffffffffffffffffffffffffff168173ffffffffffffffffffffffffffffffffffffffff1603612b5a576040517f08c379a0000000000000000000000000000000000000000000000000000000008152600401612b5190614856565b60405180910390fd5b80600360006101000a81548173ffffffffffffffffffffffffffffffffffffffff021916908373ffffffffffffffffffffffffffffffffffffffff1602179055508073ffffffffffffffffffffffffffffffffffffffff167fe3162ce634ee4c6e39c868aa130f44228244e7469c577a852dd02e9fd9cb59c360405160405180910390a250565b60096020528060005260406000206000915054906101000a900460ff1681565b60055481565b6000806000806007805490508510612c54576040517f08c379a0000000000000000000000000000000000000000000000000000000008152600401612c4b906141a4565b60405180910390fd5b600060078681548110612c6a57612c696141c4565b5b906000526020600020906007020190506000805b600680549050811015612cd3578760068281548110612ca057612c9f6141c4565b5b90600052602060002090600502016001015403612cc6578180612cc2906148e2565b9250505b8080600101915050612c7e565b508160030154826004015483600401548460030154612cf291906142fa565b83955095509550955050509193509193565b6000600960008473ffffffffffffffffffffffffffffffffffffffff1673ffffffffffffffffffffffffffffffffffffffff16815260200190815260200160002060009054906101000a900460ff16612d92576040517f08c379a0000000000000000000000000000000000000000000000000000000008152600401612d8990614138565b60405180910390fd5b6007805490508210612dd9576040517f08c379a0000000000000000000000000000000000000000000000000000000008152600401612dd0906141a4565b60405180910390fd5b600860008473ffffffffffffffffffffffffffffffffffffffff1673ffffffffffffffffffffffffffffffffffffffff168152602001908152602001600020600501600083815260200190815260200160002054905092915050565b612e3d6131bf565b60008211612e80576040517f08c379a0000000000000000000000000000000000000000000000000000000008152600401612e7790614cc7565b60405180910390fd5b60008111612ec3576040517f08c379a0000000000000000000000000000000000000000000000000000000008152600401612eba90614d59565b60405180910390fd5b81811115612f06576040517f08c379a0000000000000000000000000000000000000000000000000000000008152600401612efd90614deb565b60405180910390fd5b6000600260019054906101000a900473ffffffffffffffffffffffffffffffffffffffff1673ffffffffffffffffffffffffffffffffffffffff166323b872dd3330866040518463ffffffff1660e01b8152600401612f6793929190614996565b6020604051808303816000875af1158015612f86573d6000803e3d6000fd5b505050506040513d601f19601f82011682018060405250810190612faa9190614383565b905080612fec576040517f08c379a0000000000000000000000000000000000000000000000000000000008152600401612fe390614a19565b60405180910390fd5b6000600780549050905060076001816001815401808255809150500390600052602060002090505060006007828154811061302a576130296141c4565b5b90600052602060002090600702019050818160000181905550338160010160006101000a81548173ffffffffffffffffffffffffffffffffffffffff021916908373ffffffffffffffffffffffffffffffffffffffff1602179055506000816002018190555084816003018190555060008160040181905550600560008154809291906130b6906148e2565b91905055503373ffffffffffffffffffffffffffffffffffffffff16827ff5ac772f880dc6ed6b50db24e062bbc51818e270ed47533fd9162e5255fa29138787604051613104929190614e0b565b60405180910390a35050505050565b61311b613200565b600073ffffffffffffffffffffffffffffffffffffffff168173ffffffffffffffffffffffffffffffffffffffff160361318d5760006040517f1e4fbdf70000000000000000000000000000000000000000000000000000000081526004016131849190613fb6565b60405180910390fd5b61319681613708565b50565b600360009054906101000a900473ffffffffffffffffffffffffffffffffffffffff1681565b6131c7611d4e565b156131fe576040517fd93c066500000000000000000000000000000000000000000000000000000000815260040160405180910390fd5b565b61320861382f565b73ffffffffffffffffffffffffffffffffffffffff166132266120b2565b73ffffffffffffffffffffffffffffffffffffffff16146132855761324961382f565b6040517f118cdaa700000000000000000000000000000000000000000000000000000000815260040161327c9190613fb6565b60405180910390fd5b565b61328f6131bf565b6001600260006101000a81548160ff0219169083151502179055507f62e78cea01bee320cd4e420270b5ea74000d11b0c9f74754ebdbfc544b05a2586132d361382f565b6040516132e09190613fb6565b60405180910390a1565b6007805490508110613331576040517f08c379a0000000000000000000000000000000000000000000000000000000008152600401613328906141a4565b60405180910390fd5b60008211613374576040517f08c379a000000000000000000000000000000000000000000000000000000000815260040161336b906145d3565b60405180910390fd5b60006040518060a0016040528060068054905081526020018381526020018573ffffffffffffffffffffffffffffffffffffffff1681526020018481526020014281525090506006819080600181540180825580915050600190039060005260206000209060050201600090919091909150600082015181600001556020820151816001015560408201518160020160006101000a81548173ffffffffffffffffffffffffffffffffffffffff021916908373ffffffffffffffffffffffffffffffffffffffff16021790555060608201518160030155608082015181600401555050826007838154811061346c5761346b6141c4565b5b9060005260206000209060070201600401600082825461348c91906146c7565b925050819055506000600783815481106134a9576134a86141c4565b5b9060005260206000209060070201905060008160060160008773ffffffffffffffffffffffffffffffffffffffff1673ffffffffffffffffffffffffffffffffffffffff16815260200190815260200160002054036135825780600501859080600181540180825580915050600190039060005260206000200160009091909190916101000a81548173ffffffffffffffffffffffffffffffffffffffff021916908373ffffffffffffffffffffffffffffffffffffffff16021790555080600201600081548092919061357c906148e2565b91905055505b838160060160008773ffffffffffffffffffffffffffffffffffffffff1673ffffffffffffffffffffffffffffffffffffffff16815260200190815260200160002060008282546135d391906146c7565b92505081905550600960008673ffffffffffffffffffffffffffffffffffffffff1673ffffffffffffffffffffffffffffffffffffffff16815260200190815260200160002060009054906101000a900460ff1615613701576000600860008773ffffffffffffffffffffffffffffffffffffffff1673ffffffffffffffffffffffffffffffffffffffff1681526020019081526020016000209050600081600501600086815260200190815260200160002054036136b857806001018490806001815401808255809150506001900390600052602060002001600090919091909150555b8481600501600086815260200190815260200160002060008282546136dd91906146c7565b92505081905550848160040160008282546136f891906146c7565b92505081905550505b5050505050565b60008060009054906101000a900473ffffffffffffffffffffffffffffffffffffffff169050816000806101000a81548173ffffffffffffffffffffffffffffffffffffffff021916908373ffffffffffffffffffffffffffffffffffffffff1602179055508173ffffffffffffffffffffffffffffffffffffffff168173ffffffffffffffffffffffffffffffffffffffff167f8be0079c531659141344cd1fd0a4f28419497f9722a3daafe3b4186f6b6457e060405160405180910390a35050565b6137d4613837565b6000600260006101000a81548160ff0219169083151502179055507f5db9ee0a495bf2e6ff9c91a7834c1ba4fdd244a5e8aa4e537bd38aeae4b073aa61381861382f565b6040516138259190613fb6565b60405180910390a1565b600033905090565b61383f611d4e565b613875576040517f8dfc202b00000000000000000000000000000000000000000000000000000000815260040160405180910390fd5b565b6040518060a001604052806000815260200160008152602001600073ffffffffffffffffffffffffffffffffffffffff16815260200160008152602001600081525090565b600080fd5b600073ffffffffffffffffffffffffffffffffffffffff82169050919050565b60006138ec826138c1565b9050919050565b6138fc816138e1565b811461390757600080fd5b50565b600081359050613919816138f3565b92915050565b600060208284031215613935576139346138bc565b5b60006139438482850161390a565b91505092915050565b6000819050919050565b61395f8161394c565b82525050565b600081519050919050565b600082825260208201905092915050565b6000819050602082019050919050565b61399a8161394c565b82525050565b60006139ac8383613991565b60208301905092915050565b6000602082019050919050565b60006139d082613965565b6139da8185613970565b93506139e583613981565b8060005b83811015613a165781516139fd88826139a0565b9750613a08836139b8565b9250506001810190506139e9565b5085935050505092915050565b613a2c816138e1565b82525050565b600060a082019050613a476000830188613956565b8181036020830152613a5981876139c5565b9050613a686040830186613a23565b613a756060830185613a23565b613a826080830184613956565b9695505050505050565b6000819050919050565b6000613ab1613aac613aa7846138c1565b613a8c565b6138c1565b9050919050565b6000613ac382613a96565b9050919050565b6000613ad582613ab8565b9050919050565b613ae581613aca565b82525050565b6000602082019050613b006000830184613adc565b92915050565b613b0f8161394c565b8114613b1a57600080fd5b50565b600081359050613b2c81613b06565b92915050565b600060208284031215613b4857613b476138bc565b5b6000613b5684828501613b1d565b91505092915050565b600060a082019050613b746000830188613956565b613b816020830187613a23565b613b8e6040830186613956565b613b9b6060830185613956565b613ba86080830184613956565b9695505050505050565b600081519050919050565b600082825260208201905092915050565b6000819050602082019050919050565b613be7816138e1565b82525050565b6000613bf98383613bde565b60208301905092915050565b6000602082019050919050565b6000613c1d82613bb2565b613c278185613bbd565b9350613c3283613bce565b8060005b83811015613c63578151613c4a8882613bed565b9750613c5583613c05565b925050600181019050613c36565b5085935050505092915050565b600060e082019050613c85600083018a613956565b613c926020830189613a23565b613c9f6040830188613956565b613cac6060830187613956565b613cb96080830186613956565b81810360a0830152613ccb8185613c12565b905081810360c0830152613cdf81846139c5565b905098975050505050505050565b6000602082019050613d026000830184613956565b92915050565b600080600060608486031215613d2157613d206138bc565b5b6000613d2f8682870161390a565b9350506020613d4086828701613b1d565b9250506040613d5186828701613b1d565b9150509250925092565b600081519050919050565b600082825260208201905092915050565b6000819050602082019050919050565b60a082016000820151613d9d6000850182613991565b506020820151613db06020850182613991565b506040820151613dc36040850182613bde565b506060820151613dd66060850182613991565b506080820151613de96080850182613991565b50505050565b6000613dfb8383613d87565b60a08301905092915050565b6000602082019050919050565b6000613e1f82613d5b565b613e298185613d66565b9350613e3483613d77565b8060005b83811015613e65578151613e4c8882613def565b9750613e5783613e07565b925050600181019050613e38565b5085935050505092915050565b60006020820190508181036000830152613e8c8184613e14565b905092915050565b60008060408385031215613eab57613eaa6138bc565b5b6000613eb985828601613b1d565b9250506020613eca85828601613b1d565b9150509250929050565b60006020820190508181036000830152613eee8184613c12565b905092915050565b60008115159050919050565b613f0b81613ef6565b82525050565b6000602082019050613f266000830184613f02565b92915050565b60006040820190508181036000830152613f468185613c12565b90508181036020830152613f5a81846139c5565b90509392505050565b600060a082019050613f786000830188613956565b613f856020830187613956565b613f926040830186613a23565b613f9f6060830185613956565b613fac6080830184613956565b9695505050505050565b6000602082019050613fcb6000830184613a23565b92915050565b60008060408385031215613fe857613fe76138bc565b5b6000613ff68582860161390a565b92505060206140078582860161390a565b9150509250929050565b60008060408385031215614028576140276138bc565b5b60006140368582860161390a565b925050602061404785828601613b1d565b9150509250929050565b60006080820190506140666000830187613956565b6140736020830186613a23565b6140806040830185613a23565b61408d6060830184613956565b95945050505050565b60006080820190506140ab6000830187613956565b6140b86020830186613956565b6140c56040830185613956565b6140d26060830184613956565b95945050505050565b600082825260208201905092915050565b7f41646472657373206e6f74207265676973746572656420617320746573746572600082015250565b60006141226020836140db565b915061412d826140ec565b602082019050919050565b6000602082019050818103600083015261415181614115565b9050919050565b7f5461736b20646f6573206e6f7420657869737400000000000000000000000000600082015250565b600061418e6013836140db565b915061419982614158565b602082019050919050565b600060208201905081810360008301526141bd81614181565b9050919050565b7f4e487b7100000000000000000000000000000000000000000000000000000000600052603260045260246000fd5b7f4f6e6c79207461736b2063726561746f722063616e20636c6f7365207461736b600082015250565b60006142296020836140db565b9150614234826141f3565b602082019050919050565b600060208201905081810360008301526142588161421c565b9050919050565b7f5461736b206861732070656e64696e67207061796d656e747300000000000000600082015250565b60006142956019836140db565b91506142a08261425f565b602082019050919050565b600060208201905081810360008301526142c481614288565b9050919050565b7f4e487b7100000000000000000000000000000000000000000000000000000000600052601160045260246000fd5b60006143058261394c565b91506143108361394c565b9250828203905081811115614328576143276142cb565b5b92915050565b60006040820190506143436000830185613a23565b6143506020830184613956565b9392505050565b61436081613ef6565b811461436b57600080fd5b50565b60008151905061437d81614357565b92915050565b600060208284031215614399576143986138bc565b5b60006143a78482850161436e565b91505092915050565b7f526566756e64207472616e73666572206661696c656400000000000000000000600082015250565b60006143e66016836140db565b91506143f1826143b0565b602082019050919050565b60006020820190508181036000830152614415816143d9565b9050919050565b6000819050919050565b600061444161443c6144378461441c565b613a8c565b61394c565b9050919050565b61445181614426565b82525050565b600060408201905061446c6000830185614448565b6144796020830184614448565b9392505050565b7f4e487b7100000000000000000000000000000000000000000000000000000000600052604160045260246000fd5b7f4e6f7420617574686f72697365642e0000000000000000000000000000000000600082015250565b60006144e5600f836140db565b91506144f0826144af565b602082019050919050565b60006020820190508181036000830152614514816144d8565b9050919050565b7f496e76616c696420746573746572206164647265737300000000000000000000600082015250565b60006145516016836140db565b915061455c8261451b565b602082019050919050565b6000602082019050818103600083015261458081614544565b9050919050565b7f416d6f756e74206d7573742062652067726561746572207468616e2030000000600082015250565b60006145bd601d836140db565b91506145c882614587565b602082019050919050565b600060208201905081810360008301526145ec816145b0565b9050919050565b60008151905061460281613b06565b92915050565b60006020828403121561461e5761461d6138bc565b5b600061462c848285016145f3565b91505092915050565b7f496e73756666696369656e742066756e647320696e2074686520636f6e74726160008201527f6374000000000000000000000000000000000000000000000000000000000000602082015250565b60006146916022836140db565b915061469c82614635565b604082019050919050565b600060208201905081810360008301526146c081614684565b9050919050565b60006146d28261394c565b91506146dd8361394c565b92508282019050808211156146f5576146f46142cb565b5b92915050565b7f45786365656473207461736b2062756467657400000000000000000000000000600082015250565b60006147316013836140db565b915061473c826146fb565b602082019050919050565b6000602082019050818103600083015261476081614724565b9050919050565b7f5061796d656e74207472616e73666572206661696c6564000000000000000000600082015250565b600061479d6017836140db565b91506147a882614767565b602082019050919050565b600060208201905081810360008301526147cc81614790565b9050919050565b60006060820190506147e86000830186613a23565b6147f56020830185613956565b6148026040830184613956565b949350505050565b7f496e76616c696420616464726573730000000000000000000000000000000000600082015250565b6000614840600f836140db565b915061484b8261480a565b602082019050919050565b6000602082019050818103600083015261486f81614833565b9050919050565b7f416c726561647920612074657374657200000000000000000000000000000000600082015250565b60006148ac6010836140db565b91506148b782614876565b602082019050919050565b600060208201905081810360008301526148db8161489f565b9050919050565b60006148ed8261394c565b91507fffffffffffffffffffffffffffffffffffffffffffffffffffffffffffffffff820361491f5761491e6142cb565b5b600182019050919050565b7f4f6e6c79207461736b2063726561746f722063616e206465706f736974000000600082015250565b6000614960601d836140db565b915061496b8261492a565b602082019050919050565b6000602082019050818103600083015261498f81614953565b9050919050565b60006060820190506149ab6000830186613a23565b6149b86020830185613a23565b6149c56040830184613956565b949350505050565b7f5472616e73666572206661696c65640000000000000000000000000000000000600082015250565b6000614a03600f836140db565b9150614a0e826149cd565b602082019050919050565b60006020820190508181036000830152614a32816149f6565b9050919050565b7f496e76616c696420736d6172742077616c6c6574206164647265737300000000600082015250565b6000614a6f601c836140db565b9150614a7a82614a39565b602082019050919050565b60006020820190508181036000830152614a9e81614a62565b9050919050565b7f496e76616c6964206e6f726d616c206164647265737300000000000000000000600082015250565b6000614adb6016836140db565b9150614ae682614aa5565b602082019050919050565b60006020820190508181036000830152614b0a81614ace565b9050919050565b7f5769746864726177206661696c65642e00000000000000000000000000000000600082015250565b6000614b476010836140db565b9150614b5282614b11565b602082019050919050565b60006020820190508181036000830152614b7681614b3a565b9050919050565b7f416d6f756e74206d757374206265203e20300000000000000000000000000000600082015250565b6000614bb36012836140db565b9150614bbe82614b7d565b602082019050919050565b60006020820190508181036000830152614be281614ba6565b9050919050565b7f5472616e73666572206661696c65642e00000000000000000000000000000000600082015250565b6000614c1f6010836140db565b9150614c2a82614be9565b602082019050919050565b60006020820190508181036000830152614c4e81614c12565b9050919050565b7f546f74616c20616d6f756e74206d75737420626520677265617465722074686160008201527f6e20300000000000000000000000000000000000000000000000000000000000602082015250565b6000614cb16023836140db565b9150614cbc82614c55565b604082019050919050565b60006020820190508181036000830152614ce081614ca4565b9050919050565b7f4d617820726577617264206d7573742062652067726561746572207468616e2060008201527f3000000000000000000000000000000000000000000000000000000000000000602082015250565b6000614d436021836140db565b9150614d4e82614ce7565b604082019050919050565b60006020820190508181036000830152614d7281614d36565b9050919050565b7f4d6178207265776172642063616e6e6f742065786365656420746f74616c206160008201527f6d6f756e74000000000000000000000000000000000000000000000000000000602082015250565b6000614dd56025836140db565b9150614de082614d79565b604082019050919050565b60006020820190508181036000830152614e0481614dc8565b9050919050565b6000604082019050614e206000830185613956565b614e2d6020830184613956565b939250505056fea2646970667358221220af4923c1851d3fc89ecdc43c70036ac8ab444084e1161789c9cdf9625c04688f64736f6c63430008180033",
  "linkReferences": {},
  "deployedLinkReferences": {}
}